:020000040002F8
:10700000C05D0020C1730200C9730200CB7302008F
:10701000CD730200CF730200D173020000000000A4
:10702000000000000000000000000000D373020018
:10703000D573020000000000D7730200D97302006C
:1070400045770200DB730200857A0200DB730200E1
:10705000DB730200DB73020019750200DB730200B0
:10706000DB730200DB730200DB730200DB730200E0
:10707000DB730200DB730200DB730200DB730200D0
:10708000DB73020099770200DB730200DB730200FE
:10709000DB730200DB7302003D780200DB73020049
:1070A000DB730200DB730200DB730200DB730200A0
:1070B000DB730200DB730200000000000000000030
:1070C000DB730200DB730200DB730200DB73020080
:1070D000DB730200DB730200DB730200DB73020070
:1070E000DB730200DB730200DB73020000000000B0
:1070F00000000000DB73020000000000DB730200F0
:10710000000000000000000000000000000000007F
:10711000000000000000000000000000000000006F
:10712000000000000000000000000000000000005F
:10713000000000000000000000000000000000004F
:10714000000000000000000000000000000000003F
:10715000000000000000000000000000000000002F
:10716000000000000000000000000000000000001F
:10717000000000000000000000000000000000000F
:1071800000000000000000000000000000000000FF
:1071900000000000000000000000000000000000EF
:1071A00000000000000000000000000000000000DF
:1071B00000000000000000000000000000000000CF
:1071C00000000000000000000000000000000000BF
:1071D00000000000000000000000000000000000AF
:1071E000000000000000000000000000000000009F
:1071F000000000000000000000000000000000008F
:10720000DFF80CD000F076F90048004745A80200EE
:10721000C05D002030B450E8012F93B2C4892344EC
:107220008489A34228BF1B1B0489A34202BFBFF36A
:107230002F8F002007E0C3EA020340E80134002C4E
:10724000E9D14FF001000A6030BC704750E8012FCF
:10725000C2EA024240E801210029F7D1704730B468
:1072600050E8022F1FFAA2F3C488A34202BFBFF363
:107270002F8F00200DE0C48923448489A34228BFB6
:107280001B1BC2EA034340E80234002CE8D14FF054
:1072900001000A6030BC704750E8022FC2EA224267
:1072A00040E802210029F7D17047034653E8022F36
:1072B000D988B2EB324F4FF0000017BF92B241EACB
:1072C000014142EA014104E05A68B2EB324F08BF83
:1072D000012043E80212002AE8D1704730B4044686
:1072E00054E8000F0D4644E80053002BF8D1156018
:1072F00030BC704730B4044654E8000F40EA010542
:1073000044E80053002BF7D1156030BC704730B40F
:10731000044654E8000F00EA010544E80053002B3E
:10732000F7D1156030BC704730B4044654E8000F04
:1073300080EA010544E80053002BF7D1156030BC0A
:10734000704730B4044654E8000F00EB010544E8F0
:107350000053002BF7D1156030BC704730B40446A1
:1073600054E8000FA0EB010544E80053002BF7D1CF
:10737000156030BC704770B404464FF0000054E80C
:10738000006F0D68AE4207BF44E80023012044E8C7
:1073900000630E60002B1CBF0020F0E770BC70473C
:1073A00030B4044654E8000F88422CBF451A054605
:1073B00044E80053002BF5D1156030BC7047000045
:1073C0000648804706480047FEE7FEE7FEE7FEE77F
:1073D000FEE7FEE7FEE7FEE7FEE7FEE75578020080
:1073E000017202002DE9F05F0546002092469B469F
:1073F00088460646814640241BE0284641464746CB
:10740000224600F067F853465A46C01A914110D3FD
:1074100011461846224600F016F82D1A67EB0108AF
:107420004F4622460120002100F00DF817EB00091D
:107430004E41201EA4F10104DFDC484631462A46B5
:107440004346BDE8F09F202A04DB203A00FA02F10F
:10745000002070479140C2F1200320FA03F3194342
:1074600090407047004870470CF1020040EA010369
:107470009B0703D009E008C9121F08C0042AFAD2EA
:1074800003E011F8013B00F8013B521EF9D27047AE
:10749000D2B201E000F8012B491EFBD27047002256
:1074A000F6E710B513460A4604461946FFF7F0FF03
:1074B000204610BD421C10F8011B0029FBD1801A88
:1074C0007047034611F8012B00F8012B002AF9D16F
:1074D00018467047202A04DB203A21FA02F00021E6
:1074E000704721FA02F3D040C2F1200291400843D4
:1074F00019467047064C074D06E0E06840F001036E
:1075000094E8070098471034AC42F6D3FFF77CFEAE
:1075100030F8020050F802002DE9F04F8DB000273E
:1075200000200B900C904FF480700A9001260024EC
:1075300012E00A9804F094F840B100BF7E48006859
:10754000304018B10A9804F07DF8374376000A9865
:10755000001D80B20A90641C082CEAD34FF4BE7060
:1075600004F07EF850B14FF4BE7004F06BF847F0B1
:1075700000470BAA0221002004F048F8F8B200B33B
:10758000012600241BE006EA0700B0B100BF6B48EB
:1075900050F82400C0F30520804600BF674850F82B
:1075A0002400C0F301408146204602F041F8054620
:1075B00015B149464046A84700BF7600641C082C18
:1075C000E1D307F0004000287DD04FF0000B0020F1
:1075D00008900990002505E04FF0FF3006A941F81A
:1075E00025006D1C022DF7D300BF4FF0000B0024C7
:1075F00063E05348005D0590059820F0C0000490BA
:107600004F480057401C002856D006A9049803F0A4
:10761000A9FB002850D005984FEA9019049802F071
:107620004FF8804602F004F80390039810B9B9F1BE
:10763000030F40D1B9F1030F03D108A9049803F057
:107640009CFB0498029002A803F068FF0190019847
:1076500000F5E060029950F82100C0F3014800BF36
:107660000BA9049803F07EFB8246BAF1000F02D00A
:10767000B8F1020F05D0BAF1000F1BD1B8F1030F1A
:1076800018D1B9F1030F0FD1B8F1020F01D10320C6
:1076900000E0022002900299049803F012FF0BF11F
:1076A000010000F0FF0B00BF039818B14946DDE967
:1076B0000320904700BF00BF641C042C99D3BBF18A
:1076C000000F31D000E034E04FF0010804AA02219D
:1076D000002003F09BFF00250BE004A850F82500D4
:1076E0000BA951F82510884202D04FF0000802E0A3
:1076F0006D1C022DF1D300BFB8F1000F02D04FF086
:10770000000B10E000250CE004A850F825000BA9A0
:1077100041F8250008A850F8250006A941F82500E1
:107720006D1C022DF0D300BFBBF1000F7FF45DAFE5
:1077300000BF0DB0BDE8F08F04630040106500404D
:107740003834002010B54FF4807003F026FC80B16F
:107750004FF4807003F02AFC012003F031FC0D4847
:10776000407930B901200B49487108460168002072
:1077700088474FF4827003F010FC50B14FF48270D0
:1077800003F014FC022003F01BFC024801680120F6
:10779000884710BD282B002010B5034A1068034A03
:1077A0001168884710BD0000942B0020902B00200A
:1077B00010B500F06FF910BD2DE9F0470746884677
:1077C0001646C24607EB47011B4800EBC109D9F832
:1077D000140020B1012811D0022826D11EE048460D
:1077E00000F090F90546B54201D2002405E0344688
:1077F00032465146484600F0CCF918E0484600F0C1
:1078000081F90546B54201D2284600E030460446DB
:1078100022465146484600F0BCF908E0324651463F
:10782000484600F07DF9044601E0002400BF00BF97
:107830002046BDE8F08700004C3B002010B504F066
:10784000E5FD10BD01480249086070470090D00373
:10785000042C002010B502F0CFFB40B10020794984
:1078600008604FF08041C1F810017749086002F0CC
:10787000E5FB002855D075480068754908607348D5
:10788000001D0068091D0860704808300068091D67
:1078900008606E480C300068091D08606B481030A5
:1078A0000068091D0860694814300068091D0860F7
:1078B00066481830006866492031086063481C300B
:1078C0000068091D0860614820300068091D0860D3
:1078D0005E4824300068091D08605C482830006854
:1078E000091D086059482C300068091D0860574878
:1078F00030300068564940310860544834300068E0
:10790000091D0860514838300068091D08604F485B
:107910003C300068091D08604C4840300068091D73
:10792000086002F0ADFB10B14A484B49086002F014
:1079300017FB10B1FB204949086002F01FFB38B16A
:10794000474801784748006861F3030045490860EB
:1079500002F022FB18B14FF400704349086002F0B6
:1079600029FB40B14148006800F0010018B16FF0F8
:1079700001003E4908603E48006840F470003C4900
:10798000086000BF00BF00BFBFF34F8F00BF00BF44
:1079900000BF00BF00BF00BFBFF36F8F00BF00BFBD
:1079A00000BF3448006800F0004030B93148001D85
:1079B000006800F00040002840D001202E490860F7
:1079C00000BF2E4800680028FBD01220294908601B
:1079D00000BF2A4800680028FBD012212548001D5E
:1079E000016000BF254800680028FBD00020224924
:1079F000086000BF214800680028FBD000BF00BF1E
:107A000000BF00BF00BFBFF34F8F00BF00BF00BF6C
:107A100017487C38006800F4E06019490843001DED
:107A200013497C39086000BF00BF00BFBFF34F8F10
:107A300000BF00BF00BF00BF00BFFDE7FFF702FFB0
:107A400010BD00000C010040380500400404001087
:107A500020C50040488103008C56004018F50040C6
:107A600058020010E40E004040960240000400401E
:107A700088ED00E00012001004E5014000E4014040
:107A80000000FA0510B502490868804710BD0000E3
:107A9000302B002010B5124C02202061606111A033
:107AA000A0611349E1614FF4007121620021A162DC
:107AB0006162E1620BA0A0640E49E16410212165BE
:107AC0000021A1656165E1650BA1E01DFFF7F9FCEF
:107AD0000AA12046FFF7F5FC2020A07110BD000090
:107AE000343B00205465726D696E616C00000000CB
:107AF000AC3B0020AC3D0020525454005345474756
:107B00004552000010B501460A69CB689A4204D874
:107B10008C68641EE41AA01801E0D41A601E10BD1F
:107B20002DE9F0470446894617464FF0000AE568FC
:107B300000BFD4F81080A84503D9A8EB0500461E65
:107B400004E0A5EB0800401CA1680E1AA068401BC9
:107B5000B04201D9304601E0A068401B0646BE4253
:107B600001D2304600E03846064661684819324680
:107B70004946FFF77BFCB244B144BF1B3544A068C3
:107B8000A84200D10025E560002FD2D15046BDE8C3
:107B9000F0872DE9F047044689461546E668A06857
:107BA000871BAF4208D9616888192A464946FFF702
:107BB0005DFC7019E06010E0B846616888194246C3
:107BC0004946FFF753FCA5EB070809EB07014246BE
:107BD0006068FFF74BFCC4F80C80BDE8F08702E05A
:107BE00008C8121F08C1002AFAD170477047002048
:107BF00001E001C1121F002AFBD170470146202974
:107C000008DA012088400A4A104008B10120704774
:107C10000020FCE7402909DAA1F12000012202FA44
:107C200000F008B10120F2E70020F0E70120EEE7C4
:107C3000FC06FFBD00BFEFF31081084672B6704727
:107C40000246002104E0505C08B101207047491C45
:107C50000629F8D30020F9E770B504460D4604F272
:107C60002740FFF7EDFF0646012D06D0022D0DD06F
:107C7000032D11D0042D19D113E0A07928B194F867
:107C8000240010B90EB1012070BD00BFE07910B121
:107C90000EB10220F8E700BF207A08B10320F3E715
:107CA00000BF607A08B10420EEE700BF0020EBE7D8
:107CB0000146481C052290FBF2F302FB1300C0B200
:107CC0007047014691F82420012A01D1EE2000E0FE
:107CD0001F20704730B5ABB0AC216846FFF7DFFB23
:107CE00002208DF8000000208DF8020006208DF89B
:107CF00003000121ADF84C100F49149101218DF8BA
:107D00007C104FF4A0712291002123910B482990FF
:107D100069460B4800F05EFC044600BF254625B1CD
:107D200000BF284600F0F2F800BF00BF0121044860
:107D300000F04DFC2BB030BDEC2A0020E1CF02005A
:107D4000402C002070B50321064800F0E5FC0446F5
:107D500000BF254625B100BF284600F0D7F800BF78
:107D600000BF70BD402C002010B50446022001F079
:107D70005BF810BD10B5002407E00749096811F849
:107D80003400012104F0DCFC641C044800788442C7
:107D9000F3D3002010BD0000382B00203C2B002026
:107DA0002DE9F84306460D4617460A2F02D2072052
:107DB000BDE8F88304F0F8FD38B904F09DFD0446F1
:107DC00000BF204600B1F3E700BF1848066018481E
:107DD00005701848076020211748FFF760FB002155
:107DE000164A1160516015E006EBC508144800689A
:107DF000009098F802008DF8010098F80000114AF0
:107E0000694604F0F3FC044600BF204600B1CFE70A
:107E100000BF00BF281EA5F10101CDB2E4D10A4A7E
:107E200000210A4800F0BAF8C2E70000382B002011
:107E30003C2B0020402B0020B8340020482B002091
:107E400000EE02008DA30200D19B0200FCED0200B7
:107E500072B600BF03F058FF00BF00BF03F0FCFC88
:107E60000028FBD100BF00BF1D491E4A891AC9085E
:107E7000012242EA01401CA103F07AFE00BF1D4826
:107E8000006800F0010000B100BE00BF1449154AAF
:107E9000891AC908022242EA014017A103F068FECC
:107EA00000BF00BF00BF00BF00BFBFF34F8F00BFC8
:107EB00000BF00BF0F48E438006800F4E0601249DA
:107EC0000843001D0B49E439086000BF00BF00BF34
:107ED000BFF34F8F00BF00BF00BF00BF00BFFDE773
:107EE000B8F8020060F80200466174616C206572A7
:107EF000726F7200F0ED00E053797374656D20725B
:107F000065736574000000000000FA053EB5044684
:107F1000002000900190029002946A46002144F2F1
:107F20000100FFF795FF3EBD70B504460D462046A3
:107F300002F060F928B12946204602F04FF90020EE
:107F400070BD0520FCE7034609B90E20704712B149
:107F5000501E104008B10920F8E71960501E9880A3
:107F600000209860D86000BFF0E770B504460D4669
:107F7000204602F03FF9A188884205D829462046CC
:107F800002F04BF9002070BD0420FCE710B5024858
:107F900001F0A0FE10BD0000502B002010B50346DC
:107FA0000C460AB9072010BD19684A61012C01D19D
:107FB000012000E0002008610020F4E738B51348F4
:107FC000006800900823582211491248006802F006
:107FD00093FD04460CB1204638BD0F4A69460F4850
:107FE00001F07EFE04460CB12046F5E701210B4866
:107FF00001F014FF01230A4A1946084801F03CFE2B
:108000000120084908702046E6E7000050EF020012
:10801000E434002040EF020065D80200502B00201D
:10802000FFFF7F005C2B00202DE9F04106460D4646
:1080300017463446207F10B10020BDE8F081A761CB
:1080400002F086F9401941F10001C4E902012069FA
:1080500000B125612146002006F03EF9EDE770B53C
:1080600004462546002028772946012006F034F9E9
:1080700070BD00002DE9F04104460F480778214605
:108080000E48FFF751FF804697B100200A4908705B
:1080900001220B490B4803F01BF8054600BF2E4692
:1080A00026B100BF3046FFF731FF00BF00BF00BF61
:1080B0004046BDE8F08100008E2B00204C350020AA
:1080C0008D2B0020742B00202DE9F04188B0044650
:1080D0000E46174698462B4807601EB9072008B081
:1080E000BDE8F081B08882B227483168FFF72BFFE6
:1080F000054600BF284600B1F1E700BFB08982B253
:108100002248B168FFF71FFF054600BF284600B1AF
:10811000E5E700BF20221E496846FFF7A7F960691E
:108120000690207C08B1012000E000208DF81400AA
:108130008DF81C80607C08B10E2000E000208DF8D6
:108140001500E0680290A0680390206801906068C4
:108150000090104A6946104802F074FF054600BFBF
:10816000284600B1BBE700BF00200C49087020681A
:10817000401C28B101220A49074802F0A9FFAEE7D6
:108180000020ACE7882B00204C3500205C35002017
:1081900054EF020051E50200742B00208E2B0020CA
:1081A0008D2B00202DE9F041054629461448FFF7A4
:1081B000DCFE064606BB134C002720781249085CFB
:1081C00020B1201D04F0FCFE074608E020780E498F
:1081D000085C20B904F10C0004F09AFD074600BFCA
:1081E00057B90A490648FFF79FFE28B901220749F7
:1081F000044802F08FFF06463046BDE8F0810000DB
:108200005C350020742B0020242B00208C2B0020B8
:1082100010B50446204605F06DFC10BD70B504464F
:1082200025460E488068B0B1ADB9FFF703FD06469C
:108230000A4800680A490860084840684FF0E02191
:10824000C1F804010020054988601EB900BF62B66C
:1082500000BF00BF00BF00BF70BD0000D8340020C9
:1082600000E100E0F8B505460C4617462088001DE1
:10827000B84201D90C20F8BD684679DF064600BF38
:10828000304600B1F7E700BF0320218868542088FA
:10829000401C20801920218868542088401C2080A0
:1082A00020884119BDF8000006F0B6FB218808447B
:1082B00020800020DFE770B505460C462068401C92
:1082C00028B1206803F067F9206803F0E2F86068DD
:1082D000401C18B10021606803F0C1F82868A1694A
:1082E000C0F8241500BF617D227D286841EA0203A1
:1082F000C0F86C3500BFD4E90012286804F09AF980
:10830000207D012814D1A068401C18B10021A0686C
:1083100003F0A5F8E068401C28B1E06803F03BF9E1
:10832000E06803F0B6F8D4E90221286804F06AF99D
:1083300070BD70B505460C462068401C28B1206809
:1083400003F036F9206803F0B0F86068401C18B1FB
:108350000021606803F090F82868A169C0F824152E
:1083600000BF617D227D286841EA0203C0F86C35B8
:1083700000BFD4E90012286804F096F9207D012896
:1083800014D1A068401C18B10021A06803F074F853
:10839000E068401C28B1E06803F00AF9E06803F0E7
:1083A00084F8D4E90221286804F05FF970BD000068
:1083B000002114E00C48D0F81024012308E000BF8D
:1083C000D0680079884201D1002303E0D0680268B8
:1083D000002AF4D100BF0BB108467047491C0A2996
:1083E000E8DB4FF0FF30F8E7103700202DE9FC41C3
:1083F000054688461646002437880020308095F8C8
:108400002D0058B13A463146404600F08DFA0446F8
:1084100000BF204608B1BDE8FC8100BFA87850B17C
:108420003A4631464046FFF71DFF044600BF20464E
:1084300000B1F0E700BFE87860B1E97848B23B46A8
:108440003246414601F001FF044600BF204600B11C
:10845000E1E700BF686868B1696891F900003B46D0
:108460003246414605F0C5FF044600BF204600B134
:10847000D1E700BF288900280EDD434606220221ED
:1084800005F10800CDE9006706F096FB044600BF41
:10849000204600B1BFE700BF288A00280EDD434612
:1084A0000722032105F11000CDE9006706F084FBE7
:1084B000044600BF204600B1ADE700BF288B00286E
:1084C0000EDD43461522142105F11800CDE90067A1
:1084D00006F072FB044600BF204600B19BE700BFD8
:1084E000286A58B13B4632464146286A01F068FA8C
:1084F000044600BF204600B18DE700BF686A58B14E
:108500003B4632464146686A02F0D6F9044600BF4F
:10851000204600B17FE700BF95F82C0000280BDD56
:108520003B4632464146284605F0E4FB044600BF80
:10853000204600B16FE700BF287858B13B4632466D
:108540004146284602F074FA044600BF204600B1B6
:1085500061E700BF20465EE7F8B504460E461546C3
:10856000002000902B466A463146204600F008F86D
:1085700007460FB90020F8BDBDF800002044FAE717
:10858000F0B504460D4604B10AB90020F0BD002143
:1085900003E0605C401C084481B21088884203DC20
:1085A000481C205C984201D0A942F2DBA94201DBC1
:1085B0000020EBE7881C86B2605C401E87B2F01991
:1085C000A84201DD0020E1E716803846DEE780F8AA
:1085D0003010704770B504460D4605B10CB90E2039
:1085E00070BD05F1780001F094F908B90720F7E7AC
:1085F0000020A0702C2205F17801201DFEF736FF27
:10860000002084F83000D5F8A4006063D5F8A800F5
:10861000A0634FF6FF70A4F8240404F58260C4F848
:108620002004002140F22C40C4F82614A4F82A1497
:108630000155207810B9FF2084F8540004F155004A
:10864000C4F810042046FFF73CFB40F214410853E5
:1086500004F2144204F155012846FFF7C7FE06460E
:1086600000BF304600B1BBE700BF04F231204FF439
:10867000836108512046FFF724FBA4F81C044FF443
:108680008360015904F21C4205F13C00FFF7AEFE85
:10869000064600BF304600B1A2E700BF01215120CD
:1086A0000155208B81B248200153012084F83C0001
:1086B00000212164502001556169616404F13C028C
:1086C000002104F1540072DF064600BF304600B1BD
:1086D00086E700BF01202070304681E770B5044670
:1086E0000D462E462088102804D0112807D02628B1
:1086F0000FD109E02146304604F02EFD0AE0214664
:10870000304604F0EEFD05E02146304604F0F9FE67
:1087100000E000BF00BF70BD70B504460E46207873
:1087200008B9082070BDA670002140F22C40C4F8A2
:108730002614A4F82A140155A07910B1A0780128B4
:1087400009D0E07910B1A078012804D0E07970B1A7
:10875000A07802280BD1606B30B1012084F82D0481
:108760000820616B884702E0002084F82D04314620
:108770002046FFF771FAA070606BA0B1A0780328C3
:1087800002D0A07804280ED1607960B194F82E044C
:1087900048B9002084F83004012084F82F04072011
:1087A000616B884702E0002084F82F04182104F14F
:1087B0003C00FEF774FE012084F83C0004F12C001C
:1087C00004F01DFF20B194F82C105120015502E057
:1087D00001215120015594F8240060B104F12800D2
:1087E00004F00DFF20B194F828105220015502E04A
:1087F000012152200155002150200155A078052863
:1088000024D2DFE800F01F030A11180004F13C0134
:10881000204605F001FB054619E004F13C01204625
:1088200005F0E2FA054612E004F13C01204605F0AD
:1088300005FB05460BE004F13C01204605F02CFB4E
:10884000054604E0002084F8310000E000BF00BFCE
:10885000A07898B104F13C0204F15400D4F820143B
:1088600072DF05460DB128465CE794F8301094F8A5
:10887000540073DF05460DB1284653E7606B18B10D
:1088800094F83100616B884700204BE72DE9F041F7
:10889000044600BF14B90E20BDE8F08100BF1C22C1
:1088A00021461C48FEF7E2FD1B481A490860206873
:1088B00060B120687ADF05460DB12846ECE716481E
:1088C00021680A6802604968416005E012487BDF60
:1088D00005460DB12846DFE7002617E006EB8600C7
:1088E0000E4901EB800700BF4FF6FF70388000BFD4
:1088F0000B4800EB461078600A4A0021381DFFF74C
:108900004DFB05460DB10320C6E7761C002EE5D0D1
:108910000020C1E72C3300200A2B00201833002050
:10892000F8320020DDEA02002DE9FC4105460C4644
:10893000174620880930B84202D90C20BDE8FC81D6
:1089400068466DDF064600BF304600B1F6E700BF5F
:108950000820218868542088401C20801B20218802
:1089600068542088401C208020882844DDF80110AD
:108970000160BDF8051081802088801D20809DF851
:108980000000400818B900202188685402E0012046
:10899000218868542088401C20800020CEE70000F9
:1089A000F8B505460F46002428883B2866D006DC2B
:1089B000102818D0112807D021287CD13DE052285A
:1089C0004BD0562877D167E04FF6FF703B490880BF
:1089D0003B493C4A891AC908032242EA01403AA1AC
:1089E00003F0C6F868E03649364A891AC9080322F6
:1089F00042EA014038A103F0BBF8072000F02CFB4D
:108A0000044600BF264626B100BF3046FFF77EFA77
:108A100000BF00BFA888294908800846018831485E
:108A200002F054FA044600BF264626B100BF304685
:108A3000FFF76CFA00BF00BF3EE000200090A8885E
:108A400069468FDF044600BF264626B100BF304688
:108A5000FFF75CFA00BF00BF2EE000231A4619465C
:108A600016480088B1DF044600BF264626B100BF85
:108A70003046FFF74BFA00BF00BF1DE0A888132166
:108A800076DF044600BF264626B100BF3046FFF71A
:108A90003DFA00BF00BF0FE0A888132176DF04462F
:108AA00000BF264626B100BF3046FFF72FFA00BFB1
:108AB00000BF01E0FFE700BF00BFF8BDE82A0020CB
:108AC000B8F8020060F80200446973636F6E6E6567
:108AD000637465642E000000436F6E6E6563746599
:108AE000642E0000342C002070B504460D4620880A
:108AF000102806D0112808D012280ED0502810D1E6
:108B000007E0204604F0F0FA0CE0204604F0D0FB29
:108B100008E0204604F026FD04E0204604F0CCFAEC
:108B200000E000BF00BF70BD2DE9F04104460F46D4
:108B3000A6882088102806D0112817D019283DD0E3
:108B40001A2848D116E004F05FFE304604F038FEE3
:108B500020B900BF0420FFF7D9F906E0E07B012827
:108B600003D031461D4802F031F834E0304604F0BD
:108B70006FFE30E0207A0509042D01DB012000E0C2
:108B800000200246314615480C3001F04FFB032D02
:108B900001DB012000E00020024631460F4808308A
:108BA00001F044FB022D01DB012000E00020024621
:108BB00031460A48001D01F039FB0CE0207A48B923
:108BC000607AC0F3C0052A46314604480C3001F0F3
:108BD0002DFB00BF00BF00BFBDE8F0815433002073
:108BE00070B50446204605F011FF054605F001006A
:108BF00070BD38B503F0C8FB044600BF254625B15B
:108C000000BF2846FFF782F900BF00BF0020009098
:108C10006946012003F02AFA044600BF254625B123
:108C200000BF2846FFF772F900BF00BF684603F097
:108C3000CDFA044600BF254625B100BF2846FFF700
:108C400065F900BF00BF38BD2DE9FF4104460F465E
:108C500015461E4600BF1CB90E2004B0BDE8F081C9
:108C600000BF4FF6FF70864201D10520F5E7288846
:108C7000142801DD0720F0E7002000900190029009
:108C80000390A088ADF800000397029501208DF8AD
:108C9000020069463046AEDFDFE7000070B58EB0F7
:108CA00004460E463F4B0FCB09AD0FC500BF14B9AC
:108CB0000E200EB070BD00BF00BF0EB90E20F8E749
:108CC00000BF30686061214609A862DF054600BF29
:108CD000284600B1EDE700BF20788DF836000A2065
:108CE000ADF83400A21C0DA90120A8DF054600BF85
:108CF000284600B1DDE700BF202101A8FEF7CFFB29
:108D00000C20ADF8040020788DF806001420ADF892
:108D100008000120ADF80A008DF810009DF8110040
:108D200020F0080008308DF811009DF8110020F0A7
:108D30000400001D8DF8110001208DF815008DF83C
:108D40001600608804F10C0201A900F0BFFC054682
:108D50000DB12846ADE7202101A8FEF7A0FB0B20AE
:108D6000ADF8040020788DF806001420ADF8080056
:108D70000120ADF80A008DF810009DF8110020F0D8
:108D8000100010308DF8110001208DF815008DF8BD
:108D900016008DF817006088221D01A900F096FCCE
:108DA00087E7000048ED020070B504460D4605B1A6
:108DB00004B970BD2E462088502802D057280AD109
:108DC00004E02146304604F0F9FB05E02146304638
:108DD00004F040FB00E000BF00BF00BFE9E7000077
:108DE0007CB500240DE00848055D032600200090B6
:108DF0003346024601460190284602F0C8FA00BFF9
:108E0000641C042CEFD37CBD00ED020010B50446B9
:108E100004F0010008B100F051F804F0020008B1BC
:108E2000FFF7DEFF10BD0000F8B505460B48405DBA
:108E30000090684602F062FB0446D4F80465012005
:108E400000998840B043C4F8080501200099884083
:108E50003040C4F80C0500BFF8BD0000FCEC020077
:108E600010B504460249085D012102F0AEFB10BDB9
:108E7000FCEC020010B504460249085D002102F036
:108E8000A4FB10BDFCEC0200F8B504460A48005DE6
:108E90000090684602F032FB064600BFD6F8040593
:108EA0000099C84000F0010008B1012000E0002056
:108EB000054685F00100F8BDFCEC02007CB50024FD
:108EC0000CE00948055D0020009003460122114690
:108ED0000190284602F05BFA00BF641C042CF0D31A
:108EE00000F004F87CBD0000FCEC020010B500248A
:108EF00003E02046FFF7B4FF641C042CF9D310BD37
:108F000010B5002403E02046FFF7B4FF641C042CD6
:108F1000F9D310BD02464FF0FF30002106E0054BAB
:108F20005B5C934201D1084602E0491C0429F6D358
:108F300000BF704700ED02002DE9F04106460F46E4
:108F40004FF0000800243046FFF7E4FF0446042CED
:108F50003ED20FB3012F02D0022F38D130E004EB04
:108F60004400214911F8008004EB44000844407893
:108F700050B11E4A4FF480411D480068FFF754F875
:108F800005460DB91948067004EB4400164908441B
:108F90008078184908551AE015480068FFF75FF80F
:108FA0001448005D04EB44010F4A1144897888425B
:108FB00005D104EB44001146084490F8028006E015
:108FC00004EB44000849084490F8018000BF00BF4A
:108FD000B8F1000F06D00848006818B140460649AD
:108FE00009688847BDE8F081C8320020042B0020C2
:108FF0000CED0200052B0020002B002030B50346AD
:109000000020042B23D2012A07D1012903D103F127
:109010000E04E4B200E00024224679B1012902D016
:10902000022911D104E003EB43040A4D2A550DE057
:1090300003EB4304074D2C44627007E003EB430449
:10904000044D2C44A27001E0072000BF00E007207F
:1090500030BD0000C832002070B504460025054828
:10906000007800F0010018B1204600F05BF80546DA
:10907000284670BDF82A00202DE9F04105460F462C
:1090800000241F4805601F48076005F0020000B378
:10909000002606E0012211463046FFF7AFFF0446E6
:1090A000761C042E01D2002CF4D034B940F23332B5
:1090B00004211548FEF774FE044614B9FEF75AFE63
:1090C00004462CB9114A00211148FEF767FF0446F7
:1090D00000BF05F0010080B10120FFF797FE2CB919
:1090E0000C4A00210C48FEF759FF04462CB90B4AE4
:1090F00001210B48FEF752FF04462046BDE8F081EF
:10910000F82A0020002B002010ED0200019602003A
:109110000CED02000DA7020004ED0200697D0200C3
:1091200008ED02002DE9F047044600260025DA4844
:10913000007820B10020D849087001F0D3FA182C2B
:109140007ED2DFE804F00C16174A7EB2F6F4F3F292
:10915000F1F0EFEEEDECEBEAE9E8E7E6E5E401F04B
:10916000C1FACE480068FEF77AFF0646CC48047084
:109170008DE100BF0020FFF787FE58B10020FFF708
:109180006FFE022C02D14FF4E16001E04FF47A60EF
:10919000054609E00020FFF76DFE022C01D1C82032
:1091A00001E04FF4C8700546BD4804704FF400401C
:1091B000A5FB00104FF47A73CF1840F100015A005C
:1091C00000233846FEF70EF9814600224946B3488F
:1091D0000068FEF729FF064659E10020FFF754FE1C
:1091E00058B10020FFF73CFE032C02D14FF4487029
:1091F00001E04FF47A60054609E00020FFF73AFEEF
:10920000032C01D1C82001E04FF4C8700546A448E2
:1092100004704FF40040A5FB00104FF47A728F18D1
:1092200040F10001520000233846FEF7DBF881468A
:109230000022494699480068FEF7F6FE064626E1F8
:1092400024E10020FFF720FE58B10020FFF708FEC0
:10925000042C02D14FF47A6001E04FF47A600546A5
:109260000AE00020FFF706FE042C02D14FF4C8707C
:1092700001E04FF4C8700546894804704FF400407F
:10928000A5FB00104FF47A73CF1840F100015A008B
:1092900000233846FEF7A6F88146002249467F485B
:1092A0000068FEF7C1FE0646F1E00020FFF7ECFD86
:1092B00050B10020FFF7D4FD052C01D1C82001E0FA
:1092C0004FF47A60054609E00020FFF7D3FD052C36
:1092D00001D1C82001E04FF4C87005467048047001
:1092E0004FF40040A5FB00204FF47A73D71840F1EB
:1092F00000015A0000233846FEF774F88146002228
:10930000494666480068FEF78FFE0646BFE0B8E0B3
:10931000B6E0AAE0A1E098E092E05FE05DE05BE00B
:1093200059E057E051E042E033E024E015E00EE080
:10933000FFE70020FFF778FD59480470002240F253
:10934000666156480068FEF76FFE06469FE0002003
:10935000FFF790FD5248047099E001204E490870D3
:10936000FFF762FD002240F266614C480068FEF79C
:109370005BFE06468BE0012047490870FFF754FD6D
:1093800000224FF4005145480068FEF74DFE0646A6
:109390007DE0012040490870FFF746FD002240F2C1
:1093A00066613E480068FEF73FFE06466FE001201A
:1093B00039490870FFF738FD00224FF40051374853
:1093C0000068FEF731FE064661E0FFF799FD34487C
:1093D00004705CE000BF00BF00BF00BF3148006800
:1093E000FEF73DFE0646C4F1110515B30EBB012D77
:1093F00018D9A8B2C82148434FF4004180FB01109E
:109400004FF47A728F1840F1000152000023384661
:10941000FDF7E8FF81460022494622480068FEF732
:1094200003FE06460220FFF725FD01201E490870B5
:1094300005E00220FFF714FD00201B49087026E01C
:1094400001F050F91648047021E001F04BF90020BA
:10945000FFF710FD1248047019E001F043F90120F4
:10946000FFF708FD0E48047011E001F03BF9002001
:10947000FFF700FD0120FFF7FDFC0948047006E03E
:1094800000BFFFF73DFD0648047000E000BF00BFCD
:109490003046BDE8F0870000F52A002004ED020008
:1094A000F42A002008ED0200FC2A00202DE9FC47E8
:1094B00004460D461646A71C4FF0010800200190F7
:1094C00001A8FEF7A5FE3048006828602E48006815
:1094D0002D494968411A2C488068401CA0EB0109BD
:1094E00015E00121294801F08EFB01F047F9824681
:1094F0005146264801F087FB234800682249496805
:10950000411A21488068401CA0EB010900BF4F456B
:10951000E7D8B8F1000F30D00021009176B1009962
:1095200021F00301491C0091009921F00401091D5B
:109530000091009964F3891100910DE0009921F0E8
:109540000301891C0091009921F00401091D00917B
:10955000009964F39F5100910B4909680A4A926887
:109560001140094A0C3202EB810000990160064962
:10957000096839440C3A116000BF9DF80400FEF7F9
:109580004DFE4046BDE8FC87103700202C3B0020F4
:1095900070B504460D460A2D03D10D212046FFF774
:1095A000F7FFA168481CA06020684554D4E9011069
:1095B000884202D3204601F0E4FD70BD04484068B3
:1095C00003490968884201D1012070470020FCE767
:1095D000103700200246002108E0074B1B6803EB10
:1095E000C1000378934200D17047491C03480078BA
:1095F0008142F2DB0020F7E7382B00203C2B0020D3
:1096000010B5044620780221FFF796FC10BD00003B
:109610004FF0FF31054A42F82010082804DBFF23F1
:10962000A0F108016032535470470000D833002085
:109630000146024850F8210070470000D83300204E
:109640002DE9F04F03460C464FF0FF390AB10020D8
:1096500000E0082084460AB1082000E00C20804683
:10966000614624E0154850F82100401CF0B91D4621
:109670000846274616464FFA80FBDFF840A00AF15D
:10968000300A0AF805B0DFF834A04AF820704EB965
:109690004FFA85FBA0F1080ADFF820E00EF1600E1A
:1096A0000EF80AB000BF4FFA81F902E0491C4145AB
:1096B000D8D300BF4846BDE8F08F0000D833002063
:1096C00001460148405670470834002070B590B0FC
:1096D00006460C461546A07818B901208DF80E00F4
:1096E00002E0A0788DF80E002088ADF80C00002074
:1096F0000290607C02A904F0FDFBA07C0DF1090141
:1097000004F0F8FBE07B08B1012000E000209DF8A8
:109710000A1060F3C3018DF80A10207C08B1012003
:1097200000E000209DF80A1060F304118DF80A1083
:10973000207B08B1012000E000209DF80A1060F3B2
:1097400000018DF80A10207D08B1022000E0012000
:109750009DF80A1060F342018DF80A101C2109A837
:10976000FDF79DFE607BC0F3001018B9607BC0F36D
:109770004010F8B100200090E07C0DF1010104F0F0
:10978000B9FB00BF9DF8000020F00F00401C8DF8D1
:1097900000009DF8000020F0F00010308DF800006F
:1097A00000BF9DF8020020F00600801C8DF802002A
:1097B000CDF838D0607B8DF82400A07B8DF8250093
:1097C000142104A8FDF76BFE03A8049002A80590DD
:1097D000A088ADF81C00A06820B1E088ADF81800A2
:1097E000A0680890A069002849D000200190A069D5
:1097F0000088ADF82C00A0694088ADF82E00A06963
:1098000040680A9001A80D90A169087B01A904F0A5
:1098100071FBA169487B0DF1050104F06BFBA069A8
:10982000807A08B1012000E000209DF8061060F366
:10983000C3018DF80610A069C07A08B1012000E0CC
:1098400000209DF8061060F304118DF80610A06941
:10985000007A08B1012000E000209DF8061060F3B6
:1098600000018DF80610A069807B08B1022000E09D
:1098700001209DF8061060F342018DF80610E069A2
:1098800008B1E0690C902B4604AA09A93046AADF6A
:1098900010B070BD70B505460DB9094C01E0084C1B
:1098A000083409E0204600F007FF064606B904E048
:1098B00028467168884700BFF4E700BF70BD00000C
:1098C000CC33002010B504462CB90120064948705D
:1098D0000020FFF7DFFF012C04D10120024988702E
:1098E000FFF7D8FF10BD0000C43300202DE9F0477A
:1098F000024613468C46D3E90245DCE90267B6EB23
:10990000040877EB050002D30120BDE8F0870020B2
:10991000FBE701468878012805D191F8200001284D
:1099200001D1002070470120FCE733B58BB005461C
:10993000002000900C9878B100240BE021460CA880
:1099400001F035F928B1009A501C009001A820F8C8
:109950001240641C142CF1D32C2269462846FDF7D2
:1099600085FD0DB030BD01460888062808DB088853
:10997000B0F5486F06DD08884FF6FF72904201D0BF
:10998000072070474888062808DB4888B0F5486FEC
:1099900006DD48884FF6FF72904201D00720F0E7BD
:1099A00008884FF6FF72904208D04888904205D050
:1099B00008884A88904201DD0720E2E70020E0E7BE
:1099C0002DE9F04107460D46144698462088801D33
:1099D000404502D90C20BDE8F0813846FFF7C3FFAF
:1099E000064600BF304600B1F5E700BF05202188DC
:1099F00068542088401C20801220218868542088C8
:109A0000401C208022885119388805F005F82188EB
:109A10000844208022885119788804F0FDFF2188AD
:109A2000084420800020D6E710B5044600BF204639
:109A3000FEF76CFA00BF10BD30B587B01C21684638
:109A4000FDF72DFD002000904FF4A03001904FF461
:109A5000F020029003208DF80C000020ADF80E00DD
:109A60008DF8100009480590094806906846FEF7F1
:109A70000DFF044600BF254625B100BF2846FEF76E
:109A800045FA00BF00BF07B030BD00008DD0020016
:109A9000299A0200F8B505460C46607A88B9207A02
:109AA00010B91048476801E00E4887682A463946D1
:109AB0006068FEF7B9FA064616B1304604F0BAF807
:109AC0000EE0002020720748406948B101208DF85F
:109AD0000000ADF80250034841696846884700BF5E
:109AE000F8BD00002C3300202DE9FF4105460C464F
:109AF000002002900390ADF80840ADF80A400090B5
:109B000001906A4602A9284690DF0646002E32D010
:109B1000304602F055FD074619491A4A891AC90804
:109B2000012242EA01403B462A46174902F036F834
:109B3000BDF8000010B9BDF8020068B1BDF80230F0
:109B4000BDF800200E490F4FC91BC908012747EA7D
:109B500001400EA102F022F8BDF8040058B1BDF892
:109B600004200749074BC91AC908012343EA0140E9
:109B7000164902F007F8304604B0BDE8F081000055
:109B800060F8020060F8020010F1020054686520DD
:109B90007265717565737465642054582F5258202E
:109BA0007061636B6574206C656E6774682069739F
:109BB00020746F6F206C6F6E672062792025752F7F
:109BC0002575206F63746574732E00005CF10200CC
:109BD0002DE9F0418046002414E01248006800EBB3
:109BE000C405287802F07EFE07466878012800D177
:109BF00000E00020784080F001062878314600F02F
:109C000067FA641C084800788442E6DB0748D0E91C
:109C10000010002359405840014301D004F07CFB60
:109C2000BDE8F081382B00203C2B0020482B002081
:109C300010B50021034801F007F8044684F3100032
:109C400010BD00002C3B002070B505460C464FF4BB
:109C5000803000FA04F1284600F020FA70BD70B59B
:109C600005460C464FF4A07000EB840086B23146E6
:109C7000284600F0A5FA70BD2DE9F04704460D46D0
:109C800016461F464FF4803000FA05F84FF4A070D6
:109C900000EB85001FFA80F926F07F4641462068D8
:109CA00002F0CEF94146206802F0C4F94946206826
:109CB00002F0B9F932462946206802F0ABF9414674
:109CC000206802F0BAF91FB14146206802F0BBF9E2
:109CD000BDE8F08710B50446206802F0A0F910BD79
:109CE0002DE9F04704460D46174660792F4941F8A3
:109CF000207060792E4901EBC000007968B1082618
:109D00002C492D4A891AC908022242EA01402BA196
:109D100001F02EFF3046BDE8F08729882068C0F8A2
:109D2000081500BF94F90420AB78104619460028A6
:109D30000CDA4FEA417C4FEA1C69DFF8A4C000F05E
:109D40000F08A8F104080CF8089007E04FEA417CDE
:109D50004FEA1C68DFF88CC00CF8008000BF00BF21
:109D600094F9040000BF00F01F0201219140420954
:109D7000920002F1E022C2F8001100BF00BF0120F2
:109D800061790B4A02EBC10108716079114641F813
:109D9000304000260749084A891AC908032242EAC6
:109DA000014011A101F0E4FE3046B4E7902B002001
:109DB000942B0020A0F8020060F8020052544320C7
:109DC000696E7374616E636520616C72656164793C
:109DD00020696E697469616C697A65642E0000009F
:109DE00018ED00E000E400E05254433A20696E6947
:109DF0007469616C697A65642E00000010B50146D3
:109E000091F9040000F01F0301229A40024B44091B
:109E100043F8242000BF10BD00E200E070B5054605
:109E20000C4622460221284600F044F970BD10B5C8
:109E300004464FF48271204600F0C2F910BD10B5FF
:109E400004460021206802F001F910BD10B5044657
:109E50000421206802F0FAF810BD2DE9F84F0446FD
:109E60000D46164699464FF4803000FA05FB4FF434
:109E7000A07000EB850080B2009026F07F46594626
:109E8000204600F00BF9206802F0C9F80746206868
:109E900000F5A86151F825108A463A4629462068FF
:109EA00002F0B8F82068009902F0BDF83946504633
:109EB00004F08CF9012806D1102002F029FC20685A
:109EC000009902F0B0F8206802F0A9F80746394678
:109ED000304604F07BF980465946206802F0ADF820
:109EE000B8F1010F0FD1721C2946206802F092F8D8
:109EF000102002F00DFC206802F091F8B84227D043
:109F00000D20BDE8F88F32462946206802F082F81D
:109F1000206802F084F80746701E394604F056F9AE
:109F200080466FF07F40A0EB0900404501D20D2034
:109F3000E7E7B8F1000F0BD1721C2946206802F048
:109F400069F8206802F06BF8B84201D00D20D8E71C
:109F500001225946204600F0ADF80020D1E700006C
:109F600005480068082805D10348001D006808B9A5
:109F7000012070470020FCE7300100100548006810
:109F8000082805D10348001D006808B90120704762
:109F90000020FCE73001001005480068082805D1C2
:109FA0000348001D006808B9012070470020FCE745
:109FB000300100100F480068082819D10D48001D15
:109FC000006808B9012070470A48001D0068012890
:109FD00000D1F8E70748001D0068022801D10120E0
:109FE000F1E70448001D0068032801D10120EAE7D9
:109FF0000120E8E7300100100F480068082819D157
:10A000000D48001D006808B9012070470A48001D6E
:10A010000068012800D1F8E70748001D0068022801
:10A0200001D10120F1E70448001D0068032801D197
:10A030000120EAE70120E8E7300100100F4800683E
:10A04000082819D10D48001D006808B90120704783
:10A050000A48001D0068012800D1F8E70748001DE4
:10A060000068022801D10120F1E70448001D0068C2
:10A07000032801D10120EAE70120E8E730010010C0
:10A0800005480068082805D10348001D006808B984
:10A09000012070470020FCE73001001070B5044635
:10A0A0000D462946206801F0C5FF2946206801F0C9
:10A0B000C7FF70BD70B504460E4615463146206890
:10A0C00001F0BBFF1DB13146206801F0BCFF70BD3F
:10A0D000F8B505460C46284603F0A0FF05286AD2CD
:10A0E000DFE800F003212A393F00DCB101212846D6
:10A0F00003F0A4FF002000906846FEF789F82A4686
:10A100000126002730463946FDF79DF92B4AD2E952
:10A11000003218431143294A03C29DF80000FEF79C
:10A120007DF800BF47E00CB1022000E000200146AE
:10A13000284603F083FF3EE044B10321284603F0A4
:10A140007DFF0121284604F028FD03E00121284677
:10A1500003F074FF2FE01CB90421284603F06EFFC2
:10A1600029E024B10321284603F068FF22E0002102
:10A17000284603F063FF0021284604F00EFD00206E
:10A1800000906846FEF744F82A460126002730462C
:10A190003946FDF758F90A46C143D043074B0CCB6B
:10A1A00011401840054AC2E900109DF80000FEF772
:10A1B00035F800BF00BF00BFF8BD0000482B0020ED
:10A1C00070B505460C462868015929B12146286812
:10A1D00001F029FF012070BD0020FCE770B50446A6
:10A1E0000D462A460021204600F00EF8A068401CCB
:10A1F000A06070BD01468A68C868801A7047014631
:10A200008A68C868801A704710B583680B448488D0
:10A2100023400468E35C137010BDC26883881A4051
:10A2200003689954C268521CC260704770B50546F5
:10A230000E46144624B13146284600F0C7FC03E020
:10A240003146284600F0A4FC70BD30B504461088A5
:10A25000C01C984201D90C2030BD022015884855F9
:10A260001088401C10800120158848551088401C1B
:10A27000108015884C551088401C10800020EBE79A
:10A2800070B504460D4640F21442115B0122D4F829
:10A290001004FEF761F9064606B1357004F13C0280
:10A2A00004F5826104F1540072DF70BD3EB500BF59
:10A2B0009DF8000020F00F00401C00909DF8000069
:10A2C00020F0F0001030009000BF0B2214A168466F
:10A2D0007CDF044600BF254625B100BF2846FDF7B8
:10A2E00015FE00BF00BF0020019002905020ADF885
:10A2F0000400A020ADF806000020ADF808004FF4DF
:10A30000C870ADF80A0001A87ADF044600BF2546F0
:10A3100025B100BF2846FDF7F9FD00BF00BF3EBDD7
:10A32000424C455F556172744170700070B50021F8
:10A33000064800F02DFD044600BF254625B100BFAC
:10A340002846FDF7E3FD00BF00BF70BD202C0020B4
:10A3500070B50B48FFF7BEFC0A4B0CCB841843F1D9
:10A360000005094903C9201A75EB010004D24FF01A
:10A370008073E41845F100052046294670BD0000B1
:10A38000502B0020602B0020682B00202DE9F0418D
:10A3900004468846E0B2FFF71DF90546287802F02A
:10A3A000A1FA07466878012800D100E00020784033
:10A3B00080F001064EB10648D0E900100023594054
:10A3C0005840014301D103F0A7FFBDE8F081000030
:10A3D000482B002010B501F03FFA08B901F0D0FD7C
:10A3E00010BD0000024600210CE001EB8100074B8C
:10A3F00033F82000904204D101EB810003EB800090
:10A400007047491C0029F0D00020F9E718330020DC
:10A410002DE9FC5F83460E4691461F46DDE90C455B
:10A42000002E01DA704200E0304682464FF001080B
:10A4300003E09AFBF9FA08F10108CA45F9DA474541
:10A4400000D9B84634B1002E03DB05F0040004281F
:10A4500000D1641E05F0020000B167B105F00100F3
:10A4600048B944B104E0641E20215846FFF790F833
:10A470000CB1A045F7D3002E05DA76422D215846BF
:10A48000FFF786F807E005F00400042803D12B212C
:10A490005846FFF77DF805F0020002280DD105F0BF
:10A4A000010050B94FB944B104E0641E3021584650
:10A4B000FFF76EF80CB1A045F7D33B464A4631464C
:10A4C0005846CDE9004504F0ADFABDE8FC9F000018
:10A4D0002DE9F04104460E464FF48E71206802F0DB
:10A4E0008AF84FF4A271206802F085F817492068B5
:10A4F00002F091F8206802F01BF90546374628461D
:10A500003946002809DA4A074FEA126C104A00F06F
:10A510000F031B1F02F803C003E04A07130E0D4A86
:10A52000135400BF00BF206802F002F90546284618
:10A5300000F01F02012191404209920002F1E02245
:10A54000C2F8001100BF00BFBDE8F081800002002A
:10A5500018ED00E000E400E02DE9F04104460E466D
:10A560004FF48871206802F079F84FF490712068F8
:10A5700002F074F84FF49271206802F06FF84FF413
:10A58000A271206802F06AF84FF4AC71206802F002
:10A5900065F81849206802F071F8206802F0CCF8DC
:10A5A0000546374628463946002809DA4A074FEA61
:10A5B000126C114A00F00F031B1F02F803C003E0E6
:10A5C0004A07130E0D4A135400BF00BF206802F063
:10A5D000B3F80546284600F01F02012191404209C8
:10A5E000920002F1E022C2F8001100BF00BFBDE8F6
:10A5F000F08100001003420018ED00E000E400E0EC
:10A6000030B5024600201378C3F38003D3B113782A
:10A6100003F00303012B02D0022B10D107E01388B3
:10A62000C3F383139B1C0C6823440B6008E00B6886
:10A630000225146805EB945423440B6000E000BF2E
:10A6400000BF012030BD2DE9F0410446A08800EB99
:10A65000020CB4F80480904501DD104600E0A088AB
:10A66000A8EB0005E088C618B4F80680984501DD1F
:10A67000184600E0E088A8EB00074888B4F800809E
:10A68000404504DB4888B4F80280404502DD0020E4
:10A69000BDE8F0818888A84202D38888604501D946
:10A6A0000020F5E7C888B84202D3C888B04201D973
:10A6B0000020EDE70120EBE70146086808B10268D9
:10A6C0000A60704770B500210120FEF7D5FC0446F2
:10A6D00000BF254625B100BF2846FDF717FC00BF87
:10A6E00000BF70BD10B50848007850B1002405E0E7
:10A6F000022C02D02046FEF7B3FB641C042CF7D3D7
:10A7000001E0FEF7F3FB10BDFC2A002010B5044663
:10A710000448007800F0010018B103480078FEF703
:10A7200001FD10BDF82A0020F42A002010B501F028
:10A73000DFFF00200149887010BD0000C4330020F5
:10A740001721018041800021017141711B2181711C
:10A75000C171704770B54FF48041002001F08CFA50
:10A76000044600BF254625B100BF2846FDF7CEFBB5
:10A7700000BF00BF01F05CF870BD00002DE9FF4193
:10A7800000272E4800F038FA2C48001F00F034FA59
:10A790002B48406803902A48856803982840284938
:10A7A0000C3101EB800800BF03A94046FFF728FFEA
:10A7B00030B10398284022490C3101EB800800E0B9
:10A7C00000E0F1E700BF00240AE00398411C2840A4
:10A7D00003911B490C3151F820004DF82400641CF2
:10A7E000022CF2D3009800F0030001280DD00228BB
:10A7F00014D1BDF806700421009801EB9050401E62
:10A80000039901EB9000039009E0BDF806700098F1
:10A81000C0F3831003990844039000E000BF00BF19
:10A820000648001F00F0E1F9064616B104490398F6
:10A830004860384604B0BDE8F0810000283B0020A5
:10A8400010370020FFF786FF03F0EEFD03F074FDE4
:10A85000FFF738FF02F040FFFEF7CBF9FFF726FDC8
:10A86000FFF764FD03F092FAFDF734FAFFF7E4F81E
:10A870000749084A891AC908032242EA014006A189
:10A8800001F076F9FDF75EFA01E0FFF7A3FDFCE7C2
:10A89000B8F8020060F80200424C452054656D7023
:10A8A0006C617465206578616D706C65207374618E
:10A8B000727465642E0000002DE9F04105460E46D5
:10A8C00014469846A888871C2088801C3844404538
:10A8D00002D90C20BDE8F081FE2F01D90C20F9E748
:10A8E000781C218870542088401C2080FF202188FB
:10A8F00070542088401C208022889119288804F0F8
:10A900008BF8218808442080A88800280DDDA868DD
:10A9100008B90720DEE7AA8823889819A968FCF7F8
:10A92000A5FD2088A988084420800020D2E72DE9D1
:10A93000FF4F87B0044691461E46A2462546BAF808
:10A9400006009AF805104843001F0690BAF806B0B2
:10A95000301DB0FBFBF00590301DB0FBFBF10BFB95
:10A9600011000490D9F8000081190698814202D99B
:10A970000698801B01E0D9F800000746C9F800706E
:10A9800003E02D680598401E059005980028F8D131
:10A9900003900498ABEB0008B84501D9384600E0B5
:10A9A0004046804623E00399089808440290281DF9
:10A9B000049908440190149828B14246DDE9011039
:10A9C000FCF754FD04E04246DDE90101FCF74EFDD1
:10A9D000002004902D68A7EB0807039840440390DB
:10A9E000BB4501D9384600E05846804600BF002FDD
:10A9F000D9D10BB0BDE8F08F70B503460C469CB1C1
:10AA000001F066F9054600220AE0084800EB8201E1
:10AA100008881E68B04202D11A60002070BD521C26
:10AA2000AA42F2D30520F9E70020F7E70000000072
:10AA30002DE9F84F05460F46144698462878012818
:10AA400004D1687810B90720BDE8F88F2088801CF1
:10AA5000404508D82878012807D12088801C6978CB
:10AA60000844404501D90C20EEE72088A8EB0000FF
:10AA7000801E86B200962188891CC81969467DDF30
:10AA8000814600BF484600B1DEE700BF28780228B3
:10AA900004D06878BDF80010884206DBBDF80000DD
:10AAA000B04202DC4FF0090A0BE04FF0080A2878A8
:10AAB000012805D16878B04202DC6878009000E097
:10AAC0000096BDF80000FE2801D90C20BCE7BDF8B7
:10AAD0000000401C218878542088401C2080208859
:10AAE00007F800A02088401C20802088BDF80010B6
:10AAF000084420800020A7E710B5044609B90E20BD
:10AB000010BD92FBF3F003FB102008B10920F7E71A
:10AB1000216000206060A060A281E38100BFEFE7B8
:10AB200070B504460D4629462046FCF773FB18B164
:10AB30002A882168881870BD0020FCE770B505469A
:10AB40000C4620886188884204D12846FCF7A4FB83
:10AB5000012070BD0020FCE770B504460D46294673
:10AB60002046FCF77CFB18B16A882168881870BD04
:10AB70000020FCE770B505460C46208861888842B5
:10AB800004D12846FCF762FB012070BD0020FCE7E1
:10AB900070B505460C4604F01F0301229A40D143CC
:10ABA000620905EB820000F039F8064670BD10B569
:10ABB0000246480952F8200001F01F040123A34077
:10ABC000184008B1012010BD0020FCE770B5054613
:10ABD0000C4604F01F03012202FA03F1620905EB9F
:10ABE000820000F03CF8064670BD10B50446002116
:10ABF000204600F01EF810BD10B504460121204685
:10AC000000F02DF810BDF8B504460D466A462946F9
:10AC10002046FCF796FB06460098F8BDF8B50446BA
:10AC20000D466A4629462046FCF771FB0646009809
:10AC3000F8BDF8B504460D466A4629462046FCF79D
:10AC400066FB06463046F8BDF8B504460D466A4632
:10AC500029462046FCF742FB06463046F8BDF8B5CB
:10AC600004460D466A4629462046FCF743FB064645
:10AC70000098F8BDF8B504460D466A4629462046B8
:10AC8000FCF76CFB06460098F8BDF8B504460026B4
:10AC9000002000906846FDF7BBFA206800686168F4
:10ACA000884215D920680068401E2268106001782B
:10ACB000204600F033F80646207A21680978401AC9
:10ACC000C5B220680079A84201DA2068057100BF8A
:10ACD0009DF80000FDF7A2FA3046F8BD0246D068A4
:10ACE000081A138AB0FBF3F0C0B27047F8B50446F7
:10ACF0000D462E46002000906846FDF789FA314641
:10AD00002046FFF7EBFF21680A68511C2368196091
:10AD100010709DF80000FDF781FAF8BD0246138A15
:10AD2000D06801FB0300704710B5014600BF09B9A8
:10AD30000E2010BD00BF087A0B79C01AC2B2D1E94B
:10AD40000030186005E008680368581C0C68206033
:10AD50001A70101EA2F10103DAB2F4D10B68187157
:10AD600000BFE6E730B502460B46D40802F0070202
:10AD7000012090401D5D284030BD30B50B46C20813
:10AD800000F007009C5C012585402C439C5430BD9D
:10AD900070B504460E4600BF0CB90E2070BD00BF52
:10ADA00026611720208060801B202071002505E08F
:10ADB000A11D01EBC500FFF7C3FC6D1C002DF7D0F2
:10ADC0000020EBE72DE9F047064688464546B48863
:10ADD000012C01DBBDE8F0873088242820D006DC78
:10ADE000102809D011280CD0232823D11DE03A289F
:10ADF0000CD055281ED10EE03146284602F0B4F999
:10AE000019E03146284602F085FA14E0314628461A
:10AE100002F0EEFA0FE03146284602F085FA0AE029
:10AE20003146284602F002FA05E03146284602F093
:10AE300027FA00E000BF00BFA81D00EBC4000079A6
:10AE400018B3A81D30F834102046A5DF074657B9BF
:10AE50000021A81D00EBC40001710121A81D00EB19
:10AE6000C400417110E0112F0ED0384601F0A8FB4C
:10AE700081460749074A891AC908012242EA014066
:10AE80004A4605A100F07EFE00BF00BFA2E7000019
:10AE900060F8020060F8020073645F626C655F67CF
:10AEA000617474635F65786368616E67655F6D7414
:10AEB000755F726571756573742829207265747584
:10AEC000726E65642025732E00000000024600BFEC
:10AED0000AB90E20704700BF00BF1078DE2801D0ED
:10AEE0000820F7E700BF51800020F3E7024600BFCB
:10AEF0000AB90E20704700BF00BF09B90E20F9E75C
:10AF000000BF1078DE2801D10820F3E70868506000
:10AF1000DE2010704FF6FF7050800020EAE770B519
:10AF200004460E4600BF06B970BD00BF00BF04B99D
:10AF3000FAE700BF354600BF2878DE2800D0F3E7E7
:10AF400000BFA0886988884202D1284603F00FFE1E
:10AF50002088012806D0022809D0112811D05128B4
:10AF600017D109E0211D284602F0ECFA12E0211D5C
:10AF7000284602F0E6FA0DE0211D284602F08CFA80
:10AF800008E0A0886988884202D14FF6FF70688087
:10AF900000E000BF00BF00BFC6E701464FF08040A1
:10AFA000405808B1012070470020FCE708B5002296
:10AFB0004FF080410A500958009100BF08BD0000C1
:10AFC0000149086070470000080300400122910712
:10AFD0000A50704710B500240C48007808B1852449
:10AFE00011E000200949886048600861C86008488D
:10AFF00001F06CFB044601F021FA08B901F05CFB9A
:10B00000012002490870204610BD0000C433002012
:10B01000C598020008B5002000906846FDF7F8F8D2
:10B020000748C068401E0649C8600846C06808B99D
:10B03000FFF77CFB9DF80000FDF7F0F808BD00006D
:10B04000C43300202DE9F04188B004460F46154670
:10B0500026781A4840F826501949386941F82600E0
:10B06000787F18498855202239466846FCF7FEF952
:10B0700004964FF0000820781249085C50B10DB1D9
:10B08000114800E0002002466946201D01F05CFEE8
:10B0900080460EE020780B49085C50B90DB10B4892
:10B0A00000E000200246694604F10C0001F014FDA6
:10B0B0008046404608B0BDE8F0810000142B002017
:10B0C0001C2B0020242B0020BDE7020035E60200E7
:10B0D0002DE9F04104460D461646002720780C491C
:10B0E000085C30B132462946201D01F06DFE07464E
:10B0F0000AE020780649085C30B93246294604F156
:10B100000C0001F02DFD07463846BDE8F081000037
:10B11000242B00202DE9F04104460D461646002759
:10B1200020780C49085C30B132462946201D01F0D8
:10B13000E7FE07460AE020780649085C30B9324647
:10B14000294604F10C0001F09DFD07463846BDE894
:10B15000F0810000242B00200FB438B50446059878
:10B1600010B938BC5DF814FB0020009006A80090D0
:10B170006A462046059900F012F80020009000BFB2
:10B18000EFE770B50446A06800B970BDD4E90403C8
:10B19000A268216898470020A06000BFF5E72DE96C
:10B1A000FC5F82460D4614460DB9BDE8FC9F00BF0A
:10B1B0002E786D1C06B9E1E0252E70D100274FF0E6
:10B1C000010900BF2E782B2E0CD02D2E02D0302E50
:10B1D0000CD103E047F001076D1C0AE047F00207BD
:10B1E0006D1C06E047F004076D1C02E04FF00009FB
:10B1F00000BF00BFB9F1000FE4D14FF0000800BF5D
:10B200002A2E06D12168081D2060086880446D1C24
:10B210000DE02E78302E01DB392E00DD07E06D1CAD
:10B22000A6F1300008EB880100EB4108E8E700BF19
:10B230004FF0000B2E782E2E10D16D1C00BF2E78F3
:10B24000302E01DB392E00DD07E06D1CA6F1300049
:10B250000BEB8B0100EB410BF1E700BF2E7800BF39
:10B260006C2E01D0682E02D16D1C2E7800E000E01B
:10B27000F6E700BF692E21D008DC252E6DD0582EB0
:10B2800039D0632E0CD0642E6CD116E0702E4CD0C9
:10B29000732E3ED0752E1FD0782E63D12AE065E044
:10B2A0002168081D2060D1F8009009F0FF0001908E
:10B2B00050460199FEF76CF955E000BF2168081D62
:10B2C0002060D1F800905B460A2249465046CDE9FD
:10B2D0000087FFF79DF846E02168081D2060D1F83F
:10B2E00000905B460A2249465046CDE9008703F0AC
:10B2F00099FB38E000BF2168081D2060D1F800905C
:10B300005B46102249465046CDE9008703F08AFB90
:10B3100029E02168081D2060086801903B464246EC
:10B320005046019902F018FF1DE02168081D2060B9
:10B33000D1F8009030215046FEF72AF97821504686
:10B34000FEF726F9002008210B461022CDE9001057
:10B350004946504603F066FB05E025215046FEF7BE
:10B3600017F900E000BF00BF6D1C03E031465046F6
:10B37000FEF70EF9287800287FF41AAF00BF9AF87C
:10B380000C0010B15046FFF7FCFE00BF0DE72DE9A1
:10B39000FF470C4615461E46DDE90C78684600F06E
:10B3A000ADF8814644EA450040EA860040EA0720BD
:10B3B00040EA084109F5E060009A40F82210BDE833
:10B3C000FF872DE9FF470C4615461E46DDE90C7840
:10B3D000684600F0A3F8814644EA450040EA86004A
:10B3E00040EA072040EA084109F5E060009A40F889
:10B3F0002210BDE8FF872DE9FF470C4615461E4683
:10B40000DDE90C78684600F099F8814644EA450089
:10B4100040EA860040EA072040EA084109F5E0607A
:10B42000009A40F82210BDE8FF872DE9FF470C463F
:10B4300015461E46DDE90C78684600F08FF8814617
:10B4400044EA450040EA860040EA072040EA084115
:10B4500009F5E060009A40F82210BDE8FF877CB54E
:10B4600005460C4600200090234602460146019006
:10B470002846FFF7C0FF7CBD7CB505460C46002082
:10B48000009023460246014601902846FFF7CDFF73
:10B490007CBD1CB5044600200090034601221146E5
:10B4A00001902046FFF7A7FF1CBD1CB504460020F5
:10B4B000009003460122114601902046FFF7B5FF98
:10B4C0001CBD73B50D46684600F028F8044604F527
:10B4D000E060009950F8210020F4403104F5E0606C
:10B4E000009A40F82210009950F8210040EA0541E6
:10B4F00004F5E060009A40F822107CBD014608681F
:10B50000202802D24FF0A0407047087800F01F00BA
:10B5100008600148F8E70000000300500146086891
:10B52000202802D24FF0A0407047087800F01F009A
:10B5300008600148F8E70000000300500146086871
:10B54000202802D24FF0A0407047087800F01F007A
:10B5500008600148F8E70000000300500146086851
:10B56000202802D24FF0A0407047087800F01F005A
:10B5700008600148F8E700000003005031B5684654
:10B58000FFF7CCFF044600BFD4F810050099C8406F
:10B5900000F0010038BD31B56846FFF7CFFF044623
:10B5A0000121009A01FA02F0C4F8080500BF38BD75
:10B5B00031B56846FFF7D2FF04460121009A01FA2F
:10B5C00002F0C4F8080500BF38BDF8B504460D46C2
:10B5D0006DB900946846FFF791FF06460121009A75
:10B5E00001FA02F0C6F80C0500BF00BF0DE00094A0
:10B5F0006846FFF783FF06460121009A01FA02F030
:10B60000C6F8080500BF00BF00BFF8BD3CB50B463B
:10B61000084D30CDCDE90045014606E05DF82140FA
:10B62000D4F810551560121D491CC4188C42F5D869
:10B630003CBD000058ED0200014601480844704737
:10B640000060004038B504462046FFF7F5FF0021B2
:10B6500001602046FFF7F0FF0068009000BF38BD92
:10B6600010B504462046FFF7E7FF0068012800D127
:10B6700010BD0020FCE70000014908607047000091
:10B680000463004070B504460E46FCF791FE054683
:10B69000681C08B9284670BDE8B2E168087100BFAF
:10B6A0000C48D0F8100430B90A48C0F81044002003
:10B6B000E16808600BE00748D0F81004C068006833
:10B6C000E16808600348D0F81004C06804602846A8
:10B6D000E1E7000010370020704710B5FCF768F86C
:10B6E00010BD704738B504460D4604484023044A4F
:10B6F00029460090204600F005F838BD71DC0200B4
:10B70000783500202DE9F04F93B082460E4617465B
:10B710009846DDF87090304600F0D3FB18210DA854
:10B72000FBF7BDFE0D97CDF83880CDF84890002589
:10B730002B46082207A9304600F0E0FB08250998AF
:10B740000A90BDF82000ADF82C00BDF82200ADF83D
:10B750002E0000208DF83100079800F0030001282A
:10B760001BD107984FEA902B0798C0F3C2008DF8C1
:10B7700030000798C0F38314A2002B4601A930467D
:10B7800000F0BCFB05EB84050DA80AAB224601A91D
:10B790000090584600F0D4FA27E0079800F0030024
:10B7A000022822D107984FEA905B0798C0F3C200A5
:10B7B0008DF8300000BFBBF1080F01D2584600E001
:10B7C000082004462B46224605A9304600F096FB89
:10B7D0002544ABEB040B0DAB0AAA214605A800F0EB
:10B7E000EDF9BBF1000FE6D100BF304600F077FB6A
:10B7F00013B0BDE8F08F000010B502460B4C04EB0F
:10B80000C203012906D0022906D0032906D0042943
:10B8100008D105E0022007E0042005E0187903E0E4
:10B82000587901E0002000BF00BF10BD60F80200A1
:10B8300010B54FF0FF34FFF750FF04210548FFF724
:10B8400021FF044600BF01200249C968487100BFBA
:10B8500010BD000050F802002DE9F04F8BB0FDF74D
:10B86000ADFE18B100200BB0BDE8F08F0020B74945
:10B87000C1F8180400BF00BF00BFBFF34F8F00BF67
:10B8800000BF00BF084640680A90084684680A98CE
:10B8900020400C3101EB800A002500260020069094
:10B8A00000BF0AA95046FEF7ABFEA8B1A748D0F8E2
:10B8B000180488B9A54800680A99884205D8A348A1
:10B8C0000068A24948600020CDE70A9820409F49BF
:10B8D0000C3101EB800A00E000E0E2E700BF002746
:10B8E0000BE00A98411C20400A9198490C3151F80C
:10B8F000200007A941F827007F1C022FF1D30798E9
:10B9000000F0030002287CD10798800D059050219B
:10B910000798B1EB905F02DD0798800D00E05020A2
:10B920008146079869F39F50079009F10800049039
:10B930000798C0F3C20006908548049900F064FAA5
:10B940000546002D5BD0284600F0BBFA334608229E
:10B9500007A9284600F0E3FA08360A982040611C3F
:10B96000081A4FEA8008C14535D9B8F1000F06D052
:10B970000A98204075490C3101EB800001E07348C2
:10B980000C300390B8F1000F01D0404600E048466B
:10B9900000F0FF0BB8F1000F02D06C480C3000E053
:10B9A00000200290B8F1000F02D0A9EB080000E0DF
:10B9B0000020C0B2019033465A462846039900F051
:10B9C000AEFA5E44029828B133462846DDE90121EB
:10B9D00000F0A5FA0CE00A9820405C490C3101EB1C
:10B9E000800B33464A465946284600F098FA00BF75
:10B9F0000598C01C0A9901EB90000A9000BF44E032
:10BA0000FFE7079800F0030001283ED10798C0F334
:10BA10008310062803DA0798C0F3831000E006209D
:10BA2000079960F3891107910798C0F3831000F11B
:10BA300002080798C0F3C20006904FEA8801444804
:10BA400000F0E2F90546FDB1284600F03AFA334627
:10BA5000082207A9284600F062FA083600270EE0FF
:10BA60000A98421C20400A92384A0C3202EB8001AC
:10BA700033460422284600F052FA361D7F1C0798F0
:10BA8000C0F38310B842EBD800BFE5B32F48D0F81D
:10BA90001084D0F8180418B1284600F020FA31E0DC
:10BAA00019E04FF0000900BFD8F80C0040790128D8
:10BAB00000D18146B9F1000F08D000BFD8F80000CE
:10BAC000294602684046904700BF00BFD8F80C00E6
:10BAD000D0F8008000BFB8F1000FE2D1284600F096
:10BAE000FEF90020059005A8FCF792FB1748D0F856
:10BAF000180410B915490A9848609DF81400FCF71D
:10BB00008DFB00BF1DE0FFE71048D0F810840AE06D
:10BB1000C146D9F8000081684846884700BFD8F878
:10BB20000C00D0F80080B8F1000FF1D109490A4AA1
:10BB3000891AC908022242EA014008A100F018F857
:10BB400000BFFDF73BFD80F001008CE610370020C0
:10BB5000D8F80200B8F8020060F802004261636B96
:10BB6000656E647320666C75736865640000000020
:10BB700070B504460D4600231A462946204602F0B9
:10BB8000B3FA70BDF8B505460E461446009401237D
:10BB90006A463146284602F0A7FAF8BD2DE9FC4175
:10BBA00006460F4614461D460094019502236A4638
:10BBB0003946304602F098FABDE8FC812DE9F05F85
:10BBC00007460E4690461D46082E01D9BDE8F09F57
:10BBD00095F80C90002028732946404601F08AFD14
:10BBE00000240CE0B44205D23A5D1DA12846FFF7BF
:10BBF000B3FA03E01CA12846FFF7AEFA641C082C38
:10BC0000F0D31AA12846FFF7A7FA00241DE0B4429A
:10BC100016D217F804A0BAF17E0F09DCFBF722FC5C
:10BC2000006810F80A0000F03E0008B1504600E03D
:10BC30002E2083465A460EA12846FFF78DFA03E0D0
:10BC40000CA12846FFF788FA641C082CDFD30122D8
:10BC50002946404601F01CFD85F80C9000BFB5E771
:10BC60002025303278000000202020007C000000D9
:10BC700025630000200000002DE9F04106460F4634
:10BC800000BFFF200D498860002008604860C1F8AF
:10BC90001804C1F8140481F82004094800F019F9C7
:10BCA000044614B12046BDE8F081064800F0A4F92E
:10BCB00005480649401AC5080020F4E7103700205F
:10BCC000D8F80200D8EF0200D8F8020060F80200AD
:10BCD00002480349401AC00870470000D8F8020023
:10BCE00060F8020013B50C4621466846FEF784FE54
:10BCF00028B90448009A00EBC20108681CBD002066
:10BD0000FCE7000060F8020070B50C48D0F8104461
:10BD100001200A4981F820040CE000BF0120E168FD
:10BD2000487100BF2546286841682846884700BFFB
:10BD3000E0680468002CF0D170BD000010370020CE
:10BD40002DE9FF4707460C46164698460C9D95F888
:10BD50000C90002028732946404601F0CBFC072EAA
:10BD600047D2DFE806F004090F161F2A37003946CC
:10BD70002846FFF7F1F93DE0394628462268FFF7EB
:10BD8000EBF937E039462846D4E90023FFF7E4F918
:10BD900030E0A068009039462846D4E90023FFF738
:10BDA000DBF927E0D4E90201CDE900013946284654
:10BDB000D4E90023FFF7D0F91CE0D4E9021220698E
:10BDC000CDE90012029039462846D4E90023FFF756
:10BDD000C3F90FE0D4E90223D4E90410CDE900232C
:10BDE000CDE9021039462846D4E90023FFF7B4F91B
:10BDF00000E000BF00BF00222946404601F048FC99
:10BE000085F80C90BDE8FF872DE9F84F07468A4674
:10BE1000388AA0F104080AF104004044401EB0FB37
:10BE2000F8F0C0B200903846FEF72FFF044614B970
:10BE30000020BDE8F88F0020207101216171A4F875
:10BE4000068025460098A0F1010B2C462F604FF08C
:10BE5000000912E03846FEF718FF064636B1607951
:10BE6000401C60712E603760354604E0204600F0CB
:10BE700008F80020DDE709F10109D945EAD3204699
:10BE8000D7E72DE9F05F0446274697F80580264658
:10BE9000A8F1010B002501E036686D1C5D45FBD360
:10BEA000D6F800A02646002507E0D6F800903146D7
:10BEB0005046FEF71BFF4E466D1C4545F5D3BDE8C9
:10BEC000F09F70B5044625460121281DFEF79BFE14
:10BED00070BD10B504462046FEF726FF10BDF8B52C
:10BEE000044626460121301DFEF7C4FE00906D4633
:10BEF000287810B92046FFF7C4FFF8BD2DE9FC41B2
:10BF000005460E4614461F46019401203B4601AAF1
:10BF1000314600902846FEF70AFDBDE8FC812DE978
:10BF2000FC4105460E4614461F46019400203B4640
:10BF300001AA314600902846FEF7F9FCBDE8FC81D5
:10BF400010B500200A49087000BF0A49086000BF08
:10BF500000BF00BF00BFBFF35F8F00BF00BF00BFC7
:10BF600000BF0549054800F09CFA002010BD000004
:10BF7000A42B0020A02B0020B0EF02006C35002085
:10BF800038B500BF002000906846FCF741F900BFBB
:10BF9000F1EE100A044624F09F00E1EE100A00BF03
:10BFA00000BF00BF00BF00BFBFF35F8F00BF00BF77
:10BFB00000BF262000F01F0201219140094A4309D9
:10BFC00042F8231000BF9DF80000FCF727F900BFDE
:10BFD00000F034FA10B141DF044602E020BF40BF58
:10BFE00020BF38BD80E200E010B5044600BF204607
:10BFF000FBF78CFF00BF10BD002182689160826852
:10C000001161826851618268D16082685160826882
:10C010001160704700F5A86343F82120704701467E
:10C02000D1F80405704708B50022425042580092EA
:10C0300000BF08BDC0F848137047C0F844137047EC
:10C04000C0F808137047C0F804137047012242502B
:10C0500070470000014609B90E2070470248006889
:10C0600008600020F9E7000068F00200FEB506460F
:10C070000C462046FFF7EEFF05460DB12846FEBDF3
:10C0800000200090019002908DF8006001208DF852
:10C0900002000621ADF8041069462020226869DFFD
:10C0A000054675B1284600F08BFA07464049414ADB
:10C0B000891AC908012242EA01403A463E49FFF77F
:10C0C00061FD002000900190029001208DF8010098
:10C0D00000208DF802008DF8030069464020226898
:10C0E00069DF054675B1284600F06AFA074630490F
:10C0F000304A891AC908012242EA01403A462F49CA
:10C10000FFF740FD002000900190029001208DF883
:10C1100000006946226869DF054675B1284600F0CF
:10C120004FFA07462249234A891AC908012242EADE
:10C1300001403A462249FFF725FD0020009001907A
:10C1400002904FF4B06000906946A120226869DF38
:10C15000054675B1284600F033FA07461449154ADA
:10C16000891AC908012242EA01403A461549FFF7F7
:10C1700009FD002000900190029001208DF8000040
:10C180006946A020226869DF054675B1284600F09F
:10C1900017FA07460649074A891AC908012242EADE
:10C1A00001403A460849FFF7EDFC002067E7000030
:10C1B000C8F8020060F80200FCF6020044F7020032
:10C1C0005CF60200A8F6020008F602002DE9F04134
:10C1D00004462568204660DF06462068A84225D927
:10C1E0001E491F4A891AC908022242EA01401DA1BC
:10C1F000FFF7BEFC19491A4A891AC908022242EA05
:10C2000001402A4623A12368FFF7C8FC01F0D0FAB9
:10C210002168471A1149124A891AC908022242EABA
:10C2200001403A4628A1FFF7ADFC00E000BF1EB96F
:10C230000120304908700EE0304600F0C1F9074691
:10C240000649074A891AC908012242EA01403A46CA
:10C2500029A1FFF797FC3046BDE8F081C8F802003D
:10C2600060F80200496E73756666696369656E748D
:10C270002052414D20616C6C6F636174656420666F
:10C280006F722074686520536F66744465766963C5
:10C29000652E00004368616E6765207468652052F2
:10C2A000414D207374617274206C6F636174696FA7
:10C2B0006E2066726F6D203078257820746F203084
:10C2C0007825782E000000004D6178696D756D202D
:10C2D00052414D2073697A6520666F7220617070DB
:10C2E0006C69636174696F6E20697320307825789A
:10C2F0002E000000032C002073645F626C655F6594
:10C300006E61626C6528292072657475726E656451
:10C310002025732E000000002DE9F04192B08046E8
:10C320001748007810B912B0BDE8F0811CE0342045
:10C33000049004A905A861DF044604B115E005AD29
:10C34000104901A800F0ADF809E000BF03980646C7
:10C35000376828467168B84701A800F0C3F800BFE5
:10C3600003980028F1D100BFE1E700BF052C04D0FD
:10C3700000BF2046FBF7CAFD00BF00BFD3E70000A7
:10C38000032C00205CF002001CB51B48007808B1AB
:10C3900008201CBD012019490870002001F012FC82
:10C3A000112801D10020F4E7002001F029FC1448F5
:10C3B00000680190002000906846FBF729FF1149B2
:10C3C00001A810DF04460CB9012000E000200A4952
:10C3D00008709DF80000FBF721FF0CB12046D8E75C
:10C3E0000020064908700849087001F0F1FD01209D
:10C3F00001F006FC0020CCE7002C0020022C0020DD
:10C4000038F00200517E0200012C00203EB50A499E
:10C41000684600F046F809E0684600F03FF8044638
:10C4200025686068A847684600F05CF8684600F038
:10C4300035F80028F0D13EBD2CF00200014800780C
:10C4400070470000002C00202DE9FF41074618E04E
:10C4500003A84BDF044604B114E00F49684600F01E
:10C4600020F809E000BF029805462E686968039825
:10C47000B047684600F036F800BF02980028F1D1B6
:10C4800000BFE5E700BF052C04D000BF2046FBF746
:10C490003DFD00BFBDE8FF817CF0020001468868D9
:10C4A000704770B504460D462560286860602046D8
:10C4B00000F001F870BD14E0D0E90021526891420B
:10C4C00002D1002181607047416809684268526862
:10C4D000914203D0416809688160F4E741680831FE
:10C4E0004160E9E710B50446A06800B910BD2168B5
:10C4F000A06889680844A060D4E9011049688842AE
:10C5000005D16068083060602046FFF7D4FF00BFA7
:10C51000ECE770B505460E466C6806E020683146CB
:10C52000AA68904700B903E0246820680028F5D184
:10C5300000BF20683060266070BD01464868006812
:10C54000704701464A6810684A68126822B14A6812
:10C55000126812684B681A60704710B503460A46A5
:10C560000020596807E00C68944203D114680C60FD
:10C57000012003E009680C68002CF4D100BF10BD55
:10C5800070B502460D4B03F5947413E0E61AF010F3
:10C5900000EBD076761003EBC6010D68954201D909
:10C5A0000C4606E0954202D201F1080301E048681A
:10C5B00070BD00BFA342E9D30020F9E718EE0200E6
:10C5C00030B504462046FFF7DBFF05460DB90248AB
:10C5D00030BD2846FCE7000004EE02000146D1F819
:10C5E0008004C1F8800470470246505808B1012009
:10C5F00070470020FCE708B50022425042580092E4
:10C6000000BF08BDC0F808154FF4A2631A50704768
:10C61000C0F808137047C0F8041370470246D2F8F8
:10C620000403084008B1012070470020FCE7012204
:10C630004250704740F214531A5040F20C531950B4
:10C6400070470146D1F88004C1F880047047024663
:10C65000505808B1012070470020FCE708B50022BF
:10C6600042504258009200BF08BDC0F808154FF470
:10C67000A2631A507047C0F808137047C0F804133B
:10C680007047014640F23C5040587047D0F80022B5
:10C690008A43C0F800227047012242507047014689
:10C6A00040F24C504058704740F20C53195040F241
:10C6B00014531A507047000010B500F089F901209A
:10C6C0000149086000BF10BD180500400146002068
:10C6D000064A12790AB1852006E0044A1160012257
:10C6E000024B1A7100225A7170470000282B00205B
:10C6F00010B50C20FEF76AFC00BF00BF03480068BD
:10C70000C0F300400028F8D110BD0000180400401C
:10C7100070B5044604B970BD024EA5012846B04765
:10C7200000BFF8E781EF02000146080B40B27047F6
:10C730000146080B40B270470146080B40B27047F3
:10C740002DE9F04706460D46304600F07FFFE0B188
:10C750003046FCF7B5FF083822490F5CBC11032CAA
:10C7600008D13046FEF70AFF08B1032000E002209E
:10C77000804605E0012C01D1022000E00320804624
:10C7800041463046FEF79DFE2AE0304600F06AFF43
:10C7900030B33046FCF794FF0446A00000F58070EB
:10C7A00087B22046104951F8201041F001020E498D
:10C7B00041F8202000BF3846FEF744FF7DB13046E7
:10C7C000FCF77EFF8146FCF733FF8046B8F1000F8F
:10C7D00004D0012101FA04F0FEF74EFF00BF00BFB4
:10C7E000BDE8F08738340020106500402DE9FC4793
:10C7F00006460D4617464FF00008304600F018FF79
:10C8000010B14FF0080864E0A878C0F34002394640
:10C810003046FCF715FF0446601C002856D0A87867
:10C82000C0F3800030BBA87800F0010090B1019601
:10C8300001A8FEF773FE814609F5E060019950F802
:10C84000210020F0020A09F5E060019940F821A0DA
:10C8500000BF0CE095F80190002000904B46024686
:10C86000014601903046FEF7ACFD00BF00BF3046E8
:10C8700000F0D4FEA878C0F34000D0B12878164963
:10C8800051F82410154A1140134A42F82410114659
:10C8900051F824104FF47C5202EA06224FF4403340
:10C8A00003EA00431A4311430B4A42F8241000BF25
:10C8B0000EE0A4F108000A49085C297840EA8110DA
:10C8C00042B2A4F1080006490A5401E04FF00408FE
:10C8D00000BF4046BDE8FC8710650040FFC0FCFF7C
:10C8E0003834002010B504462046FEF747FE08B154
:10C8F000012010BD0020FCE72DE9F041274890F809
:10C900006A0018B108252846BDE8F081002404E03B
:10C91000204600F0B7FE601CC4B2302CF8DB0024C7
:10C9200004E02046FCF774FE601CC4B20C2CF8DB5B
:10C930001A4800214166A0F86810062213461046E6
:10C940001946002809DA4E074FEA166C144E00F01B
:10C950000F073F1F06F807C003E04E07370E114EC2
:10C96000375400BF00BF062000BF012181404209AB
:10C97000920002F1E022C2F8001100BF00BF4FF4A4
:10C98000BE70FEF75FFE4FF00040FEF775FE01201F
:10C99000024981F86A0000252846B5E7D83300200F
:10C9A00018ED00E000E400E0034890F86A0008B1E8
:10C9B000012070470020FCE7D8330020014601F039
:10C9C0006040B0F1005F01D1012070470020FCE71A
:10C9D0002DE9F04106254FF08040FFF7A5FE044603
:10C9E0002046E21704EBD2625211920002F1E022DB
:10C9F000D2F800212146E31704EBD3635B11A4EBCB
:10CA000043160123B3401A400AB1012200E000227C
:10CA100052BB4FF08040FFF787FE04462E4620466B
:10CA20003146002807DA4A07170E104A00F00F03B4
:10CA30001B1FD75403E04A07130E0D4A135400BFBF
:10CA400000BF4FF08040FFF76FFE0446204600F025
:10CA50001F02012191404209920002F1E022C2F836
:10CA6000001100BF00BF00BFBDE8F08118ED00E07D
:10CA700000E400E02DE9F84307460E46384600F092
:10CA80008BFE0446D4B14FF00008002000906846A9
:10CA9000FBF7BEFB207910B14FF0010802E02660E1
:10CAA000012020719DF80000FBF7B8FBB8F1000FE2
:10CAB00003D011252846BDE8F88300BF002528468D
:10CAC000F9E7000010B50249024801F0CFFD10BDA2
:10CAD00044340020002000402DE9F04105460E4678
