:020000040002F8
:10600000585F0020C5630200CD630200CF63020029
:10601000D1630200D3630200D563020000000000D8
:10602000000000000000000000000000D763020034
:10603000D963020000000000DB630200DD630200A0
:10604000BD670200DF630200316D0200DF63020002
:10605000DF630200DF630200A1650200296802001D
:10606000DF630200DF630200DF630200DF63020020
:10607000DF630200DF630200DF630200DF63020010
:10608000DF63020011680200DF630200DF630200C9
:10609000DF630200DF630200816A0200DF63020047
:1060A000DF630200DF630200DF630200DF630200E0
:1060B000DF630200DF630200000000000000000058
:1060C000DF630200DF630200DF630200DF630200C0
:1060D000DF630200DF630200DF63020000000000F4
:1060E00000000000000000000000000000000000B0
:1060F00000000000000000000000000000000000A0
:10610000000000000000000000000000000000008F
:10611000000000000000000000000000000000007F
:10612000000000000000000000000000000000006F
:10613000000000000000000000000000000000005F
:10614000000000000000000000000000000000004F
:10615000000000000000000000000000000000003F
:10616000000000000000000000000000000000002F
:10617000000000000000000000000000000000001F
:10618000000000000000000000000000000000000F
:1061900000000000000000000000000000000000FF
:1061A00000000000000000000000000000000000EF
:1061B00000000000000000000000000000000000DF
:1061C00000000000000000000000000000000000CF
:1061D00000000000000000000000000000000000BF
:1061E00000000000000000000000000000000000AF
:1061F000000000000000000000000000000000009F
:10620000DFF810D000F08EF900480047A9A6020080
:10621000AFF30080585F002030B450E8012F93B2F4
:10622000C48923448489A34228BF1B1B0489A34239
:1062300002BFBFF32F8F002007E0C3EA020340E84C
:106240000134002CE9D14FF001000A6030BC7047E6
:1062500050E8012FC2EA024240E801210029F7D1AB
:10626000704730B450E8022F1FFAA2F3C488A3424B
:1062700002BFBFF32F8F00200DE0C489234484891F
:10628000A34228BF1B1BC2EA034340E80234002C90
:10629000E8D14FF001000A6030BC704750E8022F8F
:1062A000C2EA224240E802210029F7D170470346A2
:1062B00053E8022FD988B2EB324F4FF0000017BFDE
:1062C00092B241EA014142EA014104E05A68B2EB6C
:1062D000324F08BF012043E80212002AE8D170477C
:1062E00030B4044654E8000F0D4644E80053002B38
:1062F000F8D1156030BC704730B4044654E8000F44
:1063000040EA010544E80053002BF7D1156030BC8A
:10631000704730B4044654E8000F00EA010544E831
:106320000053002BF7D1156030BC704730B40446E1
:1063300054E8000F80EA010544E80053002BF7D130
:10634000156030BC704730B4044654E8000F00EBD1
:10635000010544E80053002BF7D1156030BC7047AD
:1063600030B4044654E8000FA0EB010544E80053A4
:10637000002BF7D1156030BC704770B404464FF065
:10638000000054E8006F0D68AE4207BF44E80023E8
:10639000012044E800630E60002B1CBF0020F0E7E2
:1063A00070BC704730B4044654E8000F88422CBFDC
:1063B000451A054644E80053002BF5D1156030BC62
:1063C000704700000648804706480047FEE7FEE7A2
:1063D000FEE7FEE7FEE7FEE7FEE7FEE7FEE7FEE795
:1063E000996A0200016202002DE9F05F0546002073
:1063F00092469B4688460646814640241BE0284636
:1064000041464746224600F07DF853465A46C01A98
:10641000914110D311461846224600F016F82D1A65
:1064200067EB01084F4622460120002100F00DF8DD
:1064300017EB00094E41201EA4F10104DFDC4846A1
:1064400031462A464346BDE8F09F202A04DB203A25
:1064500000FA02F1002070479140C2F1200320FAB7
:1064600003F3194390407047004870479CF60200C0
:1064700040EA01039B0703D009E008C9121F08C0C6
:10648000042AFAD203E011F8013B00F8013B521E46
:10649000F9D27047D2B201E000F8012B491EFBD2BD
:1064A00070470022F6E710B513460A46044619461F
:1064B000FFF7F0FF204610BD421C10F8011B002919
:1064C000FBD1801A7047034611F8012B00F8012B0D
:1064D000002AF9D11846704730B50B460146002016
:1064E0002022012409E021FA02F59D4205D303FA96
:1064F00002F5491B04FA02F52844151EA2F1010217
:10650000F1DC30BD202A04DB203A21FA02F0002120
:10651000704721FA02F3D040C2F1200291400843B3
:1065200019467047064C074D06E0E06840F001034D
:1065300094E8070098471034AC42F6D3FFF764FEA6
:1065400010FE020030FE020070B58C1810F8015BDE
:1065500015F0070301D110F8013B2A1106D110F8FC
:10656000012B03E010F8016B01F8016B5B1EF9D100
:106570002B0705D40023521E0DD401F8013BFAE786
:1065800010F8013BCB1A921C03E013F8015B01F8F1
:10659000015B521EF9D5A142D8D3002070BD000086
:1065A0002DE9F04F89B00027002008904FF480704B
:1065B00007900126002412E0079804F059FF40B12B
:1065C00000BF7B480068304018B1079804F042FFD4
:1065D000374376000798001D80B20790641C082C92
:1065E000EAD34FF4BE7004F043FF50B14FF4BE70D5
:1065F00004F030FF47F0004708AA0121002004F012
:106600000FFFF8B200B3012600241BE006EA0700E2
:10661000B0B100BF674850F82400C0F304208046A2
:1066200000BF644850F82400C0F301408146204672
:1066300002F0F2FD054615B149464046A84700BFA5
:106640007600641C082CE1D307F0004000287DD0C0
:10665000002006900590002505E04FF0FF3004A9CA
:1066600041F825006D1C002DF7D000BF00200690DA
:1066700000245FE05048005D0390039820F0C009BB
:106680004D480057401C002853D004A9484604F048
:106690009FFA00284DD003984FEA901A484602F01E
:1066A00003FE804602F0B8FD0290029810B9BAF1DC
:1066B000030F3DD1BAF1030F03D105A9484604F0F9
:1066C00092FA00BF00BF4FF0A041084600F5E0611C
:1066D00051F82910C1F3014800BF08A9484604F049
:1066E00077FA8346BBF1000F02D0B8F1020F05D054
:1066F000BBF1000F1BD1B8F1030F18D1BAF1030F92
:106700000FD1B8F1020F01D1032000E00220019067
:106710004846019904F01BFE0698401CC0B2069042
:1067200000BF029818B151464846029A904700BFF0
:1067300000BF641C042C9DD3069888B34FF0010859
:1067400003AA0121002004F06BFE00E02DE00025EB
:106750000BE003A850F8250008A951F8251088423D
:1067600002D04FF0000802E06D1C002DF1D000BFF8
:10677000B8F1000F02D00020069010E000250CE0D8
:1067800003A850F8250008A941F8250005A850F8ED
:10679000250004A941F825006D1C002DF0D000BF94
:1067A000069800287FF462AF00BF09B0BDE8F08F03
:1067B0000463004010650040B035002010B54FF470
:1067C000807004F030FB80B14FF4807004F034FB33
:1067D000012004F03BFB0D48407930B901200B4902
:1067E000487108460168002088474FF4827004F021
:1067F0001AFB50B14FF4827004F01EFB022004F02B
:1068000025FB024801680120884710BD6C2B002041
:1068100010B5034A1068034A1168884710BD00008C
:10682000DC2B0020D82B0020FEB54FF4827005F041
:106830002DFB002837D04FF4827005F031FB6C48F7
:1068400090F82E0018B16A4890F82F0058B3002035
:106850008DF8000066484068019065480189ADF8F0
:106860000810C06818B900206149087412E0604837
:10687000008B5F4948830846C06848600846008B23
:1068800008810020C860084690F82E0010B900204A
:1068900005F01EFB564801686846884700205449A9
:1068A00081F82F0000BF524890F82E00002852D0E7
:1068B0004FF4807005F0EAFA00284CD04FF4807055
:1068C00005F0EEFA4A48408B494991F82D1088426C
:1068D00016DD4748408B464991F82D10401A44492F
:1068E00048830A4612890B465B8BD21A0B465B68BB
:1068F00003EB42000A4692F82D1005F0B3FA23E0AC
:106900003B48408B3A4991F82D1088420FD13848C6
:10691000C06860B10120364981F82F00002048830B
:106920000A4692F82D10D06805F09CFA0CE0304829
:10693000408B2F4991F82D10884205D101202C4918
:1069400081F82F00002048834FF4827005F0A8FAE8
:10695000042005F0BDFA4FF4887005F097FA70B185
:106960004FF4887005F09CFA002021490874022039
:106970008DF80000084601686846884700BF4FF45C
:106980008A7005F083FA38B14FF48A7005F088FAFE
:106990000020174908742AE01548456924E0B5FA33
:1069A00085F64FF00040F0408543B00000F58C7450
:1069B000204605F06BFAB8B1204605F071FA0120C7
:1069C0008DF80000A4F58C70C0F3C7008DF80400AA
:1069D000A4F58C70012121EA90018DF8051004487E
:1069E00001686846884700BF002DD8D100BFFEBDB2
:1069F0000C36002010B500F0A3F910BD2DE9F047CA
:106A0000074688461646C24607EB47011B4800EB7F
:106A1000C109D9F8140020B1012811D0022826D1CB
:106A20001EE0484600F0C4F90546B54201D20024F4
:106A300005E0344632465146484600F000FA18E078
:106A4000484600F0B5F90546B54201D2284600E0B7
:106A50003046044622465146484600F0F0F908E028
:106A600032465146484600F0B1F9044601E00024A0
:106A700000BF00BF2046BDE8F0870000E43C0020D6
:106A800010B505F029FC10BD0148024908607047A7
:106A90000090D0034C2C002010B503F087F828B1EB
:106AA00092480088C0F304209149086003F0D2F8AE
:106AB00010B190489049486703F0F4F830B18B4822
:106AC000E0380068C0F342308C49086003F014F9E4
:106AD00028B18B48006820F080708949086003F075
:106AE00023F948B10020874908604FF08041C1F880
:106AF00010018249091F086003F040F918B1032012
:106B00007E496431086003F051F968B105207E497F
:106B1000086001207C497831086000207A490831FA
:106B200008603F20091F086003F058F9002855D07D
:106B30006E48E0300068754908606C48E4300068D1
:106B4000091D08606948E8300068091D0860674849
:106B5000EC300068091D08606448F0300068091DC9
:106B600008606248F4300068091D08605F48F8302A
:106B700000686649203108605C48FC300068091DE7
:106B8000086063480068091D08606148001D0068CE
:106B9000091D08605E4808300068091D08605C48EF
:106BA0000C300068091D08605948103000685749CA
:106BB00040310860564814300068091D0860544888
:106BC00018300068091D086051481C300068091D14
:106BD00008604F4820300068091D086002F0BCFFC3
:106BE00030B14248CC38006800F04F004949086095
:106BF00003F006F840B14848006800F0010018B101
:106C00006FF001004449086003F03CF828B14348A4
:106C1000006840F480604149086039487438006871
:106C200040F4700036497439086000BF00BF00BFEF
:106C3000BFF34F8F00BF00BF00BF00BF00BF00BF4A
:106C4000BFF36F8F00BF00BF00BF3548006800F082
:106C5000004028B93248001D006800F00040E8B349
:106C600001203049086000BF2F4800680028FBD091
:106C700015202B49086000BF2B4800680028FBD076
:106C800015212748001D016000BF27480068002823
:106C9000FBD000202349086000BF2348006800287B
:106CA000FBD000BF00BF00BF00BF00BFBFF34F8FCE
:106CB00000BF00BF00BF1248F038006800F4E06079
:106CC0001A490843001D0E49F039086000BF00BF93
:106CD00000BFBFF34F8F00BF00BF00E003E000BF65
:106CE00000BF00BFFDE7FFF7CFFE10BD240300107B
:106CF000403501400DF0ADBA00C007403C050040F2
:106D0000FCED00E00C0100401056004020C50040A2
:106D100024040010E40E0040000400403C17004032
:106D20000012001004E5014000E401400000FA05F3
:106D300010B502490868804710BD0000742B002080
:106D400010B5124C02202061606111A0A0611349AE
:106D5000E1614FF4007121620021A1626162E16290
:106D60000BA0A0640E49E164102121650021A165FA
:106D70006165E1650BA1E01DFFF7A5FB0AA12046B7
:106D8000FFF7A1FB2020A07110BD0000CC3C00202B
:106D90005465726D696E616C00000000443D002016
:106DA000443F002052545400534547474552000089
:106DB00010B501460A69CB689A4204D88C68641EF3
:106DC000E41AA01801E0D41A601E10BD2DE9F047A6
:106DD0000446894617464FF0000AE56800BFD4F81C
:106DE0001080A84503D9A8EB0500461E04E0A5EBDA
:106DF0000800401CA1680E1AA068401BB04201D9CF
:106E0000304601E0A068401B0646BE4201D2304633
:106E100000E0384606466168481932464946FFF7A1
:106E200027FBB244B144BF1B3544A068A84200D13F
:106E30000025E560002FD2D15046BDE8F0872DE94E
:106E4000F047044689461546E668A068871BAF42AE
:106E500008D9616888192A464946FFF709FB701965
:106E6000E06010E0B8466168881942464946FFF77D
:106E7000FFFAA5EB070809EB070142466068FFF738
:106E8000F7FAC4F80C80BDE8F08700000FB4084B97
:106E900010B504A902AA039800F03EF8044602A91E
:106EA000002000F0DAF9204610BC5DF814FB000069
:106EB0005B72020002E008C8121F08C1002AFAD162
:106EC00070477047002001E001C1121F002AFBD16A
:106ED000704700000146202908DA012088400A4A4C
:106EE000104008B1012070470020FCE7402909DA72
:106EF000A1F12000012202FA00F008B10120F2E71E
:106F00000020F0E70120EEE7FC06FFBD00BFEFF335
:106F10001081084672B670472DE9FF4F8BB0884646
:106F20000546002606E025280BD0DDE90D12904726
:106F30006D1C761C28780028F5D10FB03046BDE8CE
:106F4000F08F0024A146A2460122AE4900E004438E
:106F500015F8013F203B02FA03F00842F7D12878E8
:106F60002A2810D06FF02F022878A0F130010929CB
:106F700015D809EB890102EB410144F0020400EB52
:106F800001096D1CF0E758F8041B5FEA010903D5FD
:106F900044F40054C9F1000944F002046D1C28783F
:106FA0002E2817D115F8010F44F004042A280ED01A
:106FB0006FF02F022878A0F1300109290AD80AEBD6
:106FC0008A0102EB410100EB010A6D1CF2E758F85F
:106FD00004AB6D1C28786C280FD006DC4C2817D029
:106FE00068280DD06A2814D104E0742810D07A28BB
:106FF0000FD10DE044F400140AE044F4801401E0E1
:1070000044F440146978814202D104F580146D1C67
:107010006D1C2878692865D006DC00288DD063288F
:1070200027D0642806D15DE06E2808D073282AD0C6
:10703000752877D0DDE90D129047761CE0E0C4F3A7
:107040000250022809D003280DD0D8F800100428D7
:107050000DD00E6008F10408D2E0D8F80010F21745
:10706000C1E90062F6E7D8F800100E80F2E70E7072
:10707000F0E718F8041B8DF8001000208DF80100CF
:10708000EB46012003E058F804BB4FF0FF306107E6
:107090004FF0000701D40AE07F1C57450DDA874204
:1070A000FADB1BF807100029F6D106E07F1C8742A7
:1070B000FCDB1BF807100029F8D1DDE90D23A9EB53
:1070C00007008146214600F0B1F83044C61904E0BB
:1070D000DDE90D121BF8010B90477F1EF8D2214607
:1070E000484688E058F8040BC4F302514FF00A0BED
:1070F000032900D100B2042900D140B2002802DAED
:1071000040422D2102E0210505D52B218DF82410C8
:10711000012104E006E0E10710D02021F6E708AFE6
:10712000089113E058F8040BC4F302514FF00A0B16
:10713000032900D180B2042900D1C0B20021EEE7BA
:107140005946FFF7C9F9303107F8011D0028F7D17A
:10715000ADEB070000F1200B600702D524F480346A
:1071600001E04FF0010ADA4502DDAAEB0B0000E076
:107170000020824600EB0B0108980144A9EB0100B6
:107180000A90E00306D4DDE90D2321460A9800F0B9
:107190004DF806444FF0000908E009A911F809006C
:1071A000DDE90D12904709F10109761C089989451E
:1071B000F3DBE0030CD5DDE90D2321460A9800F04E
:1071C00035F8064404E0DDE90D1230209047761CC6
:1071D000BAF10001AAF1010AF5DC05E0DDE90D12C2
:1071E00017F8010B9047761CBBF10001ABF1010BC6
:1071F000F4DC0A982146DDE90D2300F005F8064489
:107200006D1C97E6092801002DE9F0410446002590
:107210001E461746880404D405E039462020B047AE
:107220006D1C641EF9D52846BDE8F0812DE9F041BA
:10723000044600251E469046C80301D5302700E0CD
:107240002027880404D505E041463846B0476D1C28
:10725000641EF9D52846BDE8F0810A68531C0B600E
:1072600010707047FEB50025204E05B9204D3146FF
:10727000284605F05BFC044600BF00BF254625B14B
:1072800000BF284600F016FA00BF00BF194A07CA1F
:107290008DE807006946002005F0DCFB044600BFCE
:1072A000254625B100BF284600F004FA00BF00BF04
:1072B0000121114805F06EFB044600BF254625B1AB
:1072C00000BF284600F0F6F900BF00BF01210A48C0
:1072D000801C05F05FFB044600BF254625B100BFBA
:1072E000284600F0E7F900BF00BFFEBD81DF0200C5
:1072F00074F2020090F20200002B002002460021EE
:1073000004E0505C08B101207047491C0629F8D3FD
:107310000020F9E770B504460D4604F22740FFF758
:10732000EDFF0646012D06D0022D0DD0032D11D004
:10733000042D19D113E0A07928B194F8240010B9D4
:107340000EB1012070BD00BFE07910B10EB1022076
:10735000F8E700BF207A08B10320F3E700BF607AA6
:1073600008B10420EEE700BF0020EBE70146481C0F
:10737000052290FBF2F302FB1300C0B270470146F6
:1073800091F82420012A01D1EE2000E01F2070474F
:1073900033B59FB041F60F001D4908800120888059
:1073A0001FA91B48816041F6090019498881042101
:1073B0001748018220A941613C2110A8FFF771F80C
:1073C0003C2101A8FFF76DF802208DF84000002055
:1073D0008DF8420006208DF843000D481A900220D7
:1073E0008DF86C000120ADF814000A49069101AA3D
:1073F00010A9094800F03DFD044600BF254625B10F
:1074000000BF284600F056F900BF00BF21B030BDD4
:10741000003100201A2B0020882C002070B5064671
:1074200005F0F8FB044600BF254625B100BF2846FD
:1074300000F040F900BF00BF70BD000030B5ADB036
:1074400007F0BCF92C90AC2101A8FFF72AF8022024
:107450008DF8040000208DF8060006208DF8070046
:1074600041F60F001B490880012088801A491948FD
:10747000816041F60900174988810421154801827D
:107480002CA941610B9002208DF830000121ADF84C
:1074900050101249159101218DF880104FF4A07100
:1074A0002391002124910E482A9001A90D4800F053
:1074B00046FD044600BF254625B100BF284600F022
:1074C000F9F800BF00BF0121064800F035FD2DB0DE
:1074D00030BD000000310020082B00201A2B0020B6
:1074E00015D20200882C002070B50321064800F058
:1074F000C8FD044600BF254625B100BF284600F060
:10750000D9F800BF00BF70BD882C002010B504461C
:10751000022001F033FA10BD10B5002407E007493E
:10752000096811F83400012105F06CF8641C044866
:1075300000788442F3D3002010BD0000802B00208F
:10754000842B00202DE9F84306460D4617460A2FE6
:1075500002D20720BDE8F88305F084F938B905F0B8
:107560002BF9044600BF204600B1F3E700BF1848DE
:107570000660184805701848076018480021016027
:1075800041608160C160164A1160516015E006EBF0
:10759000C50814480068009098F802008DF80100B2
:1075A00098F80000104A694605F082F8044600BFCA
:1075B000204600B1CEE700BF00BF281EA5F10101A3
:1075C000CDB2E4D1094A0021094800F0BBF8C1E777
:1075D000802B0020842B0020882B00206036002088
:1075E000902B00209CF3020089A10200C9970200A1
:1075F00098F3020010B572B600BF04F08DFA00BF18
:1076000000BF04F031F80028FBD100BF00BF1E49C5
:107610001E4A891AC908012242EA01401CA104F04D
:10762000AFF900BF1D48006800F0010000B100BEC6
:1076300000BF1549154A891AC908022242EA0140C9
:1076400017A104F09DF900BF00BF00BF00BF00BF3D
:10765000BFF34F8F00BF00BF00BF1048E438006881
:1076600000F4E06012490843001D0C49E439086049
:1076700000BF00BF00BFBFF34F8F00BF00BF00BF00
:1076800000BF00BFFDE70000A0FE020040FE0200B8
:10769000466174616C206572726F7200F0ED00E0FB
:1076A00053797374656D2072657365740000000012
:1076B0000000FA053EB504460020009001900290BB
:1076C00002946A46002144F20100FFF793FF3EBD99
:1076D00070B504460D46204602F044FC28B1294608
:1076E000204602F033FC002070BD0520FCE7034675
:1076F00009B90E20704712B1501E104008B1092080
:10770000F8E71960501E988000209860D86000BF8C
:10771000F0E770B504460D46204602F023FCA18830
:10772000884205D82946204602F02FFC002070BD73
:107730000420FCE710B5024802F0C8F810BD0000B4
:10774000982B002010B503460C460AB9072010BD3F
:1077500019684A61012C01D1012000E00020086174
:107760000020F4E738B51348006800900823582239
:1077700011491248006803F0F5F804460CB12046A0
:1077800038BD0F4A69460F4802F0A6F804460CB10E
:107790002046F5E701210B4802F03CF901230A4A93
:1077A0001946084802F064F801200849087020468C
:1077B000E6E70000ECF402007C360020DCF4020076
:1077C00089DD0200982B0020FFFF7F00A42B002002
:1077D0002DE9F04106460D4617463446207F10B18C
:1077E0000020BDE8F081A76102F0B0FC401941F132
:1077F0000001C4E90201206900B125612146002091
:1078000007F07CF8EDE770B50446254600202877A0
:107810002946012007F072F870BD000010B50A4C2F
:1078200020780A49085C18B1201D05F0BBFC07E070
:1078300020780649085C18B904F10C0005F03AFB01
:1078400000BF002010BD0000BC2B0020682B0020D2
:107850002DE9F04104460F48077821460E48FFF70E
:1078600037FF804697B100200A49087001220B4972
:107870000B4803F073FB054600BF2E4626B100BF40
:107880003046FFF717FF00BF00BF00BF4046BDE80E
:10789000F0810000D62B0020E4360020D52B0020FC
:1078A000BC2B00202DE9F04188B004460E46174657
:1078B00098462B4807601EB9072008B0BDE8F08144
:1078C000B08882B227483168FFF711FF054600BF34
:1078D000284600B1F1E700BFB08982B22248B16802
:1078E000FFF705FF054600BF284600B1E5E700BFEA
:1078F00020221E496846FEF7BBFD60690690207C89
:1079000008B1012000E000208DF814008DF81C80E3
:10791000607C08B10E2000E000208DF81500E068C2
:107920000290A06803902068019060680090104A5F
:107930006946104803F0CCFA054600BF284600B15E
:10794000BBE700BF00200C4908702068401C28B12C
:1079500001220A49074803F001FBAEE70020ACE72B
:10796000D02B0020E4360020F4360020F0F4020092
:107970009DEB0200BC2B0020D62B0020D52B002035
:1079800010B50446204606F0BDFB10BD70B5044698
:1079900025460E488068B0B1ADB9FFF7B7FA064684
:1079A0000A4800680A490860084840684FF0E0212A
:1079B000C1F804010020054988601EB900BF62B605
:1079C00000BF00BF00BF00BF70BD000070360020C8
:1079D00000E100E0F8B505460C4617462088001D7A
:1079E000B84201D90C20F8BD684679DF064600BFD1
:1079F000304600B1F7E700BF032021886854208893
:107A0000401C20801920218868542088401C208038
:107A100020884119BDF8000007F0C4FA2188084405
:107A200020800020DFE7000070B500224FF4804185
:107A300007480068FFF7CCFE044600BF254625B185
:107A400000BF2846FFF736FE00BF00BF70BD000034
:107A500070F2020070B505460C462068401C28B143
:107A6000206803F099FC206803F059FC6068401C12
:107A700018B10021606803F038FC2868A169C0F8DB
:107A8000241500BF617D227D286841EA0203C0F809
:107A90006C3500BFD4E90012286804F030FD207D69
:107AA000012814D1A068401C18B10021A06803F07F
:107AB0001CFCE068401C28B1E06803F06DFCE06845
:107AC00003F02DFCD4E90221286804F001FD70BD0B
:107AD00070B505460C462068401C28B1206803F0AC
:107AE00066FC206803F027FC6068401C18B1002188
:107AF000606803F007FC2868A169C0F8241500BF7E
:107B0000617D227D286841EA0203C0F86C3500BF20
:107B1000D4E90012286804F02AFD207D012814D140
:107B2000A068401C18B10021A06803F0EBFBE068DE
:107B3000401C28B1E06803F03AFCE06803F0FBFB6E
:107B4000D4E90221286804F0F3FC70BD002114E0A0
:107B50000C48D0F81024012308E000BFD068007959
:107B6000884201D1002303E0D0680268002AF4D1E2
:107B700000BF0BB108467047491C0A29E8DB4FF0EB
:107B8000FF30F8E7A8380020014640F6B8329142AD
:107B900001DB642045E040F6543291420BDD40F6B3
:107BA000B832521A3A235A43642392FBF3F2C2F1D9
:107BB0006402D0B235E040F6B42291420CDD40F6CA
:107BC0005432521A02EB4202D200A02392FBF3F28B
:107BD000C2F12A02D0B224E040F6881291420DDDB3
:107BE00040F6B422521A02EB420292004FF496730E
:107BF00092FBF3F2C2F11202D0B212E040F634026C
:107C000091420DDD40F68812521A02EB42025200F8
:107C10004FF4AA7392FBF3F2C2F10602D0B200E075
:107C2000002070472DE9F04104460F46154615B96E
:107C30000E20BDE8F0810020286000BF0CB90E20A6
:107C4000F7E700BF00BF206808B90E20F1E700BFCA
:107C500000BFE088C11700EB91718910A0EB810192
:107C600009B10720E5E700BF384600F073FBC6B254
:107C7000142E01D10520DCE72079B04201DC04207C
:107C8000D7E7E188206806FB010028600020D0E7E4
:107C90002DE9FC4105468846164600243788002019
:107CA000308095F82D0058B13A463146404600F0F4
:107CB00069FB044600BF204608B1BDE8FC8100BF57
:107CC000A87850B13A4631464046FFF783FE044655
:107CD00000BF204600B1F0E700BFE87860B1E97866
:107CE00048B23B463246414602F067F9044600BFBF
:107CF000204600B1E1E700BF686868B1696891F9A2
:107D000000003B463246414606F099FE044600BF5D
:107D1000204600B1D1E700BF288900280EDD434688
:107D20000622022105F10800CDE9006707F00AFAF2
:107D3000044600BF204600B1BFE700BF288A0028E4
:107D40000EDD43460722032105F11000CDE900674F
:107D500007F0F8F9044600BF204600B1ADE700BFC8
:107D6000288B00280EDD43461522142105F118004A
:107D7000CDE9006707F0E6F9044600BF204600B1F0
:107D80009BE700BF286A58B13B4632464146286A05
:107D900001F012FC044600BF204600B18DE700BF91
:107DA000686A58B13B4632464146686A02F0BAFCFE
:107DB000044600BF204600B17FE700BF95F82C00C5
:107DC00000280BDD3B4632464146284606F09AFA2B
:107DD000044600BF204600B16FE700BF287858B1C5
:107DE0003B4632464146284602F058FD044600BF55
:107DF000204600B161E700BF20465EE7F8B50446C3
:107E00000E461546002000902B466A463146204615
:107E100000F008F807460FB90020F8BDBDF80000D3
:107E20002044FAE7F0B504460D4604B10AB9002033
:107E3000F0BD002103E0605C401C084481B2108862
:107E4000884203DC481C205C984201D0A942F2DB46
:107E5000A94201DB0020EBE7881C86B2605C401E73
:107E600087B2F019A84201DD0020E1E7168038460C
:107E7000DEE72DE9FF4104460D46164600BF1CB95A
:107E80000E2004B0BDE8F08100BF207808B90820BA
:107E9000F7E715B90EB90E20F3E700200090019026
:107EA00002900390DDB1D4F82004016804F155007C
:107EB000814200D001E004F2431000902046FFF719
:107EC0005EFAADF8040001AA28460099FFF7E0FE2B
:107ED000074600BF384600B1D3E700BF00BFDEB1A0
:107EE000D4F82004816804F23120814200D001E0FE
:107EF00004F21F3002902046FFF741FAADF80C0063
:107F000003AA30460299FFF7C3FE074600BF384672
:107F100000B1B6E700BF00BF04F580609DE88E00A9
:107F200010308EC01038C4F82004002204F1540030
:107F3000D4F8201472DFA4E780F83010704770B5D1
:107F400004460D4605B10CB90E2070BD05F1780050
:107F500001F0D3FA08B90720F7E70020A0702C221F
:107F600005F17801201DFEF783FA002084F8300027
:107F7000D5F8A4006063D5F8A800A0634FF6FF70A1
:107F8000A4F8240404F58260C4F82004002140F21F
:107F90002C40C4F82614A4F82A140155207810B9EE
:107FA000FF2084F8540004F15500C4F81004204662
:107FB000FFF7E5F940F21441085304F2144204F1CA
:107FC00055012846FFF764FE064600BF304600B163
:107FD000BBE700BF04F231204FF483610851204613
:107FE000FFF7CDF9A4F81C044FF48360015904F2A3
:107FF0001C4205F13C00FFF74BFE064600BF304631
:1080000000B1A2E700BF012151200155208B81B2B0
:1080100048200153012084F83C00002121645020B5
:1080200001556169616404F13C02002104F15400CE
:1080300072DF064600BF304600B186E700BF012070
:108040002070304681E770B504460D462E462088E4
:10805000102804D0112807D026280FD109E0214686
:10806000304605F0FDF90AE02146304605F0BDFA3C
:1080700005E02146304605F004FC00E000BF00BFEB
:1080800070BD70B504460E46207808B9082070BD52
:10809000A670002140F22C40C4F82614A4F82A143B
:1080A0000155A07910B1A078012809D0E07910B16C
:1080B000A078012804D0E07970B1A07802280BD113
:1080C000606B30B1012084F82D040820616B884773
:1080D00002E0002084F82D0431462046FFF71AF90B
:1080E000A070606BA0B1A078032802D0A07804280B
:1080F0000ED1607960B194F82E0448B9002084F85C
:108100003004012084F82F040720616B884702E0C7
:10811000002084F82F04182104F13C00FEF7C1F977
:10812000012084F83C0004F12C0005F081FC20B112
:1081300094F82C105120015502E0012151200155E5
:1081400094F8240060B104F1280005F071FC20B11E
:1081500094F828105220015502E0012152200155C7
:10816000002150200155A078052824D2DFE800F036
:108170001F030A11180004F13C01204606F044F9DF
:10818000054619E004F13C01204606F025F90546B4
:1081900012E004F13C01204606F048F905460BE0E8
:1081A00004F13C01204606F06FF9054604E000208A
:1081B00084F8310000E000BF00BFA07898B104F15E
:1081C0003C0204F15400D4F8201472DF05460DB1CE
:1081D00028465CE794F8301094F8540073DF0546A5
:1081E0000DB1284653E7606B18B194F83100616B0C
:1081F000884700204BE72DE9FF4104460F4615460E
:108200001E4600BF1CB90E2004B0BDE8F08100BFBF
:108210004FF6FF70864201D10520F5E72888F42843
:1082200001DD0720F0E7002000900190029003900C
:10823000A088ADF800000397029501208DF8020098
:1082400069463046AEDFDFE770B504460D4605B13E
:1082500004B970BD2088502802D0572816D10AE0F2
:108260000C490D4A891AC908032242EA01400BA1B0
:1082700003F086FB0BE00749074A891AC908032265
:1082800042EA014008A103F07BFB00E000BF00BF11
:1082900000BFDEE7A0FE020040FE02004556545F2C
:1082A00057524954452E000054585F434F4D504C8F
:1082B0004554452E000000002DE9F041044600BF62
:1082C00014B90E20BDE8F08100BF1C2221461C48D5
:1082D000FEF7CEF81B481A490860206860B1206894
:1082E0007ADF05460DB12846ECE7164821680A6892
:1082F00002604968416005E012487BDF05460DB128
:108300002846DFE7002617E006EB86000E4901EB62
:10831000800700BF4FF6FF70388000BF0B4800EBAE
:10832000461078600A4A0021381DFFF70BFA05460F
:108330000DB10320C6E7761C002EE5D00020C1E772
:10834000B4340020562B0020A034002080340020BC
:1083500069F0020010B50446204600F005F808B1A7
:10836000204610BD1420FCE710B50446142C01DB98
:10837000002010BD2146024802F04FFBF9E7000043
:10838000D43400202DE9FC4105460C4617462088D0
:108390000930B84202D90C20BDE8FC8168466DDF87
:1083A000064600BF304600B1F6E700BF082021882E
:1083B00068542088401C20801B2021886854208815
:1083C000401C208020882844DDF801100160BDF8A1
:1083D000051081802088801D20809DF800004008C5
:1083E00018B900202188685402E0012021886854CF
:1083F0002088401C20800020CEE70000F8B505460C
:108400000F4600242888212863D006DC10282DD0B0
:10841000112809D013287DD16BE03B287BD052284E
:108420007CD05628F7D198E04FF6FF70534908806A
:108430005349544A891AC908032242EA014052A109
:1084400003F09EFA06F0E0FC00224FF4804152480F
:108450000068FFF7BDF9044600BF264626B100BFFD
:108460003046FFF727F900BF00BF85E04449454A81
:10847000891AC908032242EA014048A103F080FAA0
:10848000072000F08DFB044600BF264626B100BF42
:108490003046FFF70FF900BF00BFA88837490880B2
:1084A00008460188404802F057FC044600BF2646B3
:1084B00026B100BF3046FFF7FDF800BF00BF00BF88
:1084C000264626B100BF3046FFF7F4F800BF00BFD4
:1084D00052E000200090A88869468FDF044600BF64
:1084E000264626B100BF3046FFF7E4F800BF00BFC4
:1084F00042E000231A468521204800887FDF044699
:1085000000BF264626B100BF3046FFF7D3F800BFB4
:1085100000BF02E02FE012E000E000BF00231A4697
:10852000194616480088B1DF044600BF264626B12A
:1085300000BF3046FFF7BEF800BF00BF1CE0A888B0
:10854000132176DF044600BF264626B100BF304621
:10855000FFF7B0F800BF00BF0EE0A888132176DF58
:10856000044600BF264626B100BF3046FFF7A2F8FA
:1085700000BF00BF00E000BF00BFF8BD142B00200B
:10858000A0FE020040FE0200446973636F6E6E65D8
:10859000637465642E00000070F20200436F6E6E1B
:1085A00065637465642E00007C2C002070B5044661
:1085B0000D462088102806D0112808D012280ED089
:1085C000502810D107E0204604F0A8FE0CE0204619
:1085D00004F0F2FF08E0204605F084F904E02046AC
:1085E00004F084FE00E000BF00BF70BD2DE9F04143
:1085F00004460F46A6882088102806D0112817D0D8
:1086000019283DD01A2848D116E005F08FFB3046D6
:1086100005F068FB20B900BF0420FFF74BF806E027
:10862000E07B012803D031461D4802F005FA34E012
:10863000304605F09FFB30E0207A0509042D01DB70
:10864000012000E000200246314615480C3001F0C0
:10865000A5FC032D01DB012000E00020024631468D
:108660000F48083001F09AFC022D01DB012000E0E8
:108670000020024631460A48001D01F08FFC0CE044
:10868000207A48B9607AC0F3C0052A4631460448CA
:108690000C3001F083FC00BF00BF00BFBDE8F081DB
:1086A000DC34002070B50446204606F075FC054613
:1086B00005F0010070BD38B503F0CCFD044600BFE5
:1086C000254625B100BF2846FEF7F4FF00BF00BFD6
:1086D000002000906946012003F00CFC044600BF16
:1086E000254625B100BF2846FEF7E4FF00BF00BFC6
:1086F000684603F0CFFC044600BF254625B100BF05
:108700002846FEF7D7FF00BF00BF38BD2DE9F04176
:1087100086B00446884617461D4600BF1CB90E2089
:1087200006B0BDE8F08100BF01AA29466069FFF7E5
:1087300079FA064600BF304600B1F1E700BF4FF6B8
:10874000FF70854201D0019808B90520E8E701983B
:10875000007808B90820E3E73888F42801DD07200D
:10876000DEE700200290039004900590A088ADF809
:108770000800CDF81480049701208DF80A0002A9A2
:108780002846AEDFCCE770B504460D4605B104B906
:1087900070BD2E462088102804D0502807D05728B6
:1087A0000FD109E02146304604F0F0FD0AE02146F1
:1087B000304605F0C3F805E02146304604F0CEFF10
:1087C00000E000BF00BF00BFE2E72DE9FF41044623
:1087D0000F4615461E4600BF1CB90E2004B0BDE86A
:1087E000F08100BF4FF6FF70864201D10520F5E70A
:1087F0002888142801DD0720F0E700200090019070
:1088000002900390A088ADF8000003970295012024
:108810008DF8020069463046AEDFDFE730B58DB037
:108820000446234B0FCB08AD0FC5214608A862DFD5
:10883000054600BF284608B10DB030BD00BF207806
:108840008DF8320040F60320ADF83000A21C0CA9D0
:108850000120A8DF054600BF284600B1ECE700BFB5
:1088600020216846FDF71DFE40F60420ADF800000B
:1088700020788DF802001420ADF804000120ADF836
:1088800006008DF80C009DF80D0020F0100010304F
:108890008DF80D0001208DF811008DF812008DF873
:1088A00013006088221D694600F004FDC4E7000043
:1088B000E8F2020070B504460D4605B104B970BD7A
:1088C0002088502802D0572816D10AE00C490D4ABA
:1088D000891AC908032242EA01400BA103F050F8AB
:1088E0000BE00749074A891AC908032242EA0140F6
:1088F0000AA103F045F800E000BF00BF00BFDEE7BB
:10890000A0FE020040FE0200766F6C746167652D68
:108910004556545F57524954452E0000766F6C748B
:108920006167652D54585F434F4D504C4554452E5B
:10893000000000007CB500240DE00848055D03261A
:10894000002000903346024601460190284602F07E
:1089500064FC00BF641C042CEFD37CBD9DF20200BC
:1089600010B5044604F0010008B100F04BF804F023
:10897000020008B1FFF7DEFF10BD000010B502468F
:108980000949885C00BF4FF0A0442146D1F8043566
:10899000012484409C43C1F80845012484401C40C4
:1089A000C1F80C4500BF10BD99F2020010B5044695
:1089B0000249085D012102F016FD10BD99F2020086
:1089C00010B504460249085D002102F00CFD10BDFF
:1089D00099F2020010B50146094B585C00BF4FF0F8
:1089E000A044234600BFD3F80445C44004F001046A
:1089F0000CB1012000E00020024682F0010010BD11
:108A000099F202007CB500240CE00948055D0020C5
:108A100000900346012211460190284602F0FDFB1A
:108A200000BF641C042CF0D300F004F87CBD0000EF
:108A300099F2020010B5002403E02046FFF7B6FFCC
:108A4000641C042CF9D310BD10B5002403E02046AB
:108A5000FFF7B6FF641C042CF9D310BD02464FF09B
:108A6000FF30002106E0054B5B5C934201D10846D4
:108A700002E0491C0429F6D300BF70479DF20200B2
:108A80002DE9F04106460F464FF00008002430461D
:108A9000FFF7E4FF0446042C3ED20FB3012F02D0AF
:108AA000022F38D130E004EB4400214911F8008056
:108AB00004EB44000844407850B11E4A4FF4804112
:108AC0001D480068FEF784FE05460DB9194806707A
:108AD00004EB4400164908448078184908551AE008
:108AE00015480068FEF78FFE1448005D04EB440152
:108AF0000F4A11448978884205D104EB440011469D
:108B0000084490F8028006E004EB44000849084459
:108B100090F8018000BF00BFB8F1000F06D00848F0
:108B2000006818B14046064909688847BDE8F081E9
:108B300050340020502B0020ACF20200512B0020BA
:108B40004C2B002030B503460020042B23D2012AF1
:108B500007D1012903D103F10E04E4B200E000249F
:108B6000224679B1012902D0022911D104E003EB98
:108B700043040A4D2A550DE003EB4304074D2C44F2
:108B8000627007E003EB4304044D2C44A27001E043
:108B9000072000BF00E0072030BD00005034002057
:108BA00070B5044600250548007800F0010018B1B2
:108BB000204600F05BF80546284670BD442B002097
:108BC0002DE9F04105460F4600241F4805601F4867
:108BD000076005F0020000B3002606E001221146FE
:108BE0003046FFF7AFFF0446761C042E01D2002C5E
:108BF000F4D034B940F2333204211548FEF7A2FC18
:108C0000044614B9FEF788FC04462CB9114A002129
:108C10001148FEF797FD044600BF05F0010080B142
:108C20000120FFF79DFE2CB90C4A00210C48FEF7ED
:108C300089FD04462CB90B4A01210B48FEF782FD41
:108C400004462046BDE8F081442B00204C2B002038
:108C5000B0F20200E9910200ACF2020071A502003C
:108C6000A4F202000D750200A8F202002DE9F047FF
:108C7000044600260025DA48007820B10020D849B3
:108C8000087001F061FC182C7ED2DFE804F00C16AD
:108C9000174A7EB2F6F4F3F2F1F0EFEEEDECEBEA08
:108CA000E9E8E7E6E5E401F04FFCCE480068FEF7AE
:108CB000AAFD0646CC4804708DE100BF0020FFF7F6
:108CC00089FE58B10020FFF771FE022C02D14FF44B
:108CD000E16001E04FF47A60054609E00020FFF70B
:108CE0006FFE022C01D1C82001E04FF4C870054688
:108CF000BD4804704FF40040A5FB00104FF47A7398
:108D0000CF1840F100015A0000233846FDF76CFBF4
:108D1000814600224946B3480068FEF759FD0646E1
:108D200059E10020FFF756FE58B10020FFF73EFE44
:108D3000032C02D14FF4487001E04FF47A600546ED
:108D400009E00020FFF73CFE032C01D1C82001E020
:108D50004FF4C8700546A44804704FF40040A5FBCA
:108D600000104FF47A728F1840F100015200002376
:108D70003846FDF739FB814600224946994800688C
:108D8000FEF726FD064626E124E10020FFF722FE3D
:108D900058B10020FFF70AFE042C02D14FF47A608C
:108DA00001E04FF47A6005460AE00020FFF708FE74
:108DB000042C02D14FF4C87001E04FF4C87005468E
:108DC000894804704FF40040A5FB00104FF47A73FB
:108DD000CF1840F100015A0000233846FDF704FB8C
:108DE0008146002249467F480068FEF7F1FC0646AE
:108DF000F1E00020FFF7EEFD50B10020FFF7D6FDB7
:108E0000052C01D1C82001E04FF47A60054609E045
:108E10000020FFF7D5FD052C01D1C82001E04FF45B
:108E2000C8700546704804704FF40040A5FB002050
:108E30004FF47A73D71840F100015A0000233846E6
:108E4000FDF7D2FA81460022494666480068FEF7DF
:108E5000BFFC0646BFE0B8E0B6E0AAE0A1E098E0BB
:108E600092E05FE05DE05BE059E057E051E042E016
:108E700033E024E015E00EE0FFE70020FFF77EFD81
:108E800059480470002240F2666156480068FEF7B7
:108E90009FFC06469FE00020FFF792FD52480470B9
:108EA00099E001204E490870FFF768FD002240F26A
:108EB00066614C480068FEF78BFC06468BE001209B
:108EC00047490870FFF75AFD00224FF4005145480A
:108ED0000068FEF77DFC06467DE0012040490870F1
:108EE000FFF74CFD002240F266613E480068FEF745
:108EF0006FFC06466FE0012039490870FFF73EFD20
:108F000000224FF4005137480068FEF761FC064626
:108F100061E0FFF799FD344804705CE000BF00BFDA
:108F200000BF00BF31480068FEF76DFC0646C4F183
:108F3000110515B30EBB012D18D9A8B2C82148439D
:108F40004FF4004180FB01104FF47A728F1840F10A
:108F50000001520000233846FDF746FA8146002200
:108F6000494622480068FEF733FC06460220FFF718
:108F700027FD01201E49087005E00220FFF716FDBD
:108F800000201B49087026E001F0DEFA1648047044
:108F900021E001F0D9FA0020FFF712FD1248047019
:108FA00019E001F0D1FA0120FFF70AFD0E48047024
:108FB00011E001F0C9FA0020FFF702FD0120FFF7E0
:108FC000FFFC0948047006E000BFFFF73DFD0648BE
:108FD000047000E000BF00BF3046BDE8F08700002D
:108FE000412B0020A4F20200402B0020A8F2020036
:108FF000482B00202DE9FC4704460D461646A71CC9
:109000004FF001080020019001A8FEF7B9FC30489C
:10901000006828602E4800682D494968411A2C488C
:109020008068401CA0EB010915E00121294801F0EE
:1090300020FD01F0D5FA82465146264801F019FD7F
:109040002348006822494968411A21488068401C29
:10905000A0EB010900BF4F45E7D8B8F1000F30D0B1
:109060000021009176B1009921F00301491C009183
:10907000009921F00401091D0091009964F3891100
:1090800000910DE0009921F00301891C00910099E5
:1090900021F00401091D0091009964F39F51009192
:1090A0000B4909680A4A92681140094A0C3202EBDE
:1090B0008100009901600649096839440C3A116041
:1090C00000BF9DF80400FEF761FC4046BDE8FC8748
:1090D000A8380020C43C002070B504460D460A2D77
:1090E00003D10D212046FFF7F7FFA168481CA060BF
:1090F00020684554D4E90110884202D3204601F08B
:1091000086FF70BD0448406803490968884201D160
:10911000012070470020FCE7A838002070B50A2223
:1091200004210848FEF70EFAFEF7F6F9044600BFE0
:10913000254625B100BF2846FEF7BCFA00BF00BF98
:1091400070BD0000202B002030B587B005460C46CE
:1091500014200090012C04D10AA101A8FDF796FE6D
:1091600003E00EA101A8FDF791FE124803886A46AC
:1091700001A91148FFF73FF8122002F023F907B0C8
:1091800030BD0000313131313131313131313131A6
:109190003131313131313131000000003030303087
:1091A00030303030303030303030303030303030BF
:1091B00000000000142B00205C2C0020024600213F
:1091C00008E0074B1B6803EBC1000378934200D112
:1091D0007047491C034800788142F2DB0020F7E722
:1091E000802B0020842B002010B50446207802211B
:1091F000FFF746FC10BD00004FF0FF31054A42F872
:109200002010082804DBFF23A0F10801503253543A
:1092100070470000603500200146024850F82100E8
:1092200070470000603500202DE9F04F03460C46E2
:109230004FF0FF390AB1002000E0082084460AB14F
:10924000082000E00C208046614624E0154850F8D4
:109250002100401CF0B91D460846274616464FFA25
:1092600080FBDFF840A00AF1300A0AF805B0DFF809
:1092700034A04AF820704EB94FFA85FBA0F1080AD5
:10928000DFF820E00EF1500E0EF80AB000BF4FFAE2
:1092900081F902E0491C4145D8D300BF4846BDE8EA
:1092A000F08F0000603500200146014840567047AD
:1092B0009035002070B590B006460C461546A07853
:1092C00018B901208DF80E0002E0A0788DF80E008C
:1092D0002088ADF80C0000200290607C02A905F007
:1092E00001F9A07C0DF1090105F0FCF8E07B08B163
:1092F000012000E000209DF80A1060F3C3018DF802
:109300000A10207C08B1012000E000209DF80A101E
:1093100060F304118DF80A10207B08B1012000E0F1
:1093200000209DF80A1060F300018DF80A10207DDE
:1093300008B1022000E001209DF80A1060F342010C
:109340008DF80A101C2109A8FDF7ABF8607BC0F36B
:10935000001018B9607BC0F34010F8B100200090F5
:10936000E07C0DF1010105F0BDF800BF9DF80000A3
:1093700020F00F00401C8DF800009DF8000020F048
:10938000F00010308DF8000000BF9DF8020020F0C2
:109390000600801C8DF80200CDF838D0607B8DF877
:1093A0002400A07B8DF82500142104A8FDF779F88E
:1093B00003A8049002A80590A088ADF81C00A0683E
:1093C00020B1E088ADF81800A0680890A0690028D6
:1093D00049D000200190A0690088ADF82C00A06958
:1093E0004088ADF82E00A06940680A9001A80D9051
:1093F000A169087B01A905F075F8A169487B0DF109
:10940000050105F06FF8A069807A08B1012000E03D
:1094100000209DF8061060F3C3018DF80610A069C6
:10942000C07A08B1012000E000209DF8061060F32A
:1094300004118DF80610A069007A08B1012000E03F
:1094400000209DF8061060F300018DF80610A06959
:10945000807B08B1022000E001209DF8061060F337
:1094600042018DF80610E06908B1E0690C902B46C6
:1094700004AA09A93046AADF10B070BD70B5054630
:109480000DB9094C01E0084C083409E0204601F010
:1094900045F8064606B904E028467168884700BFCB
:1094A000F4E700BF70BD00005435002010B504463D
:1094B0002CB90120064948700020FFF7DFFF012C7E
:1094C00004D1012002498870FFF7D8FF10BD0000C9
:1094D0004C3500202DE9F047024613468C46D3E96F
:1094E0000245DCE90267B6EB040877EB050002D31E
:1094F0000120BDE8F0870020FBE7014688780128BD
:1095000005D191F82000012801D100207047886A18
:10951000042802D0486A042801D10020F6E701207F
:10952000F4E733B58BB00546002000900C9878B175
:1095300000240BE021460CA801F06FFA28B1009A34
:10954000501C009001A820F81240641C142CF1D388
:109550002C2269462846FCF78BFF0DB030BD014632
:109560000888062808DB0888B0F5486F06DD0888FB
:109570004FF6FF72904201D00720704748880628B6
:1095800008DB4888B0F5486F06DD48884FF6FF7263
:10959000904201D00720F0E708884FF6FF72904212
:1095A00008D04888904205D008884A88904201DD5A
:1095B0000720E2E70020E0E72DE9F04107460D46ED
:1095C000144698462088801D404502D90C20BDE8ED
:1095D000F0813846FFF7C3FF064600BF304600B1B2
:1095E000F5E700BF0520218868542088401C2080B2
:1095F0001220218868542088401C2080228851191C
:10960000388805F0CFFC2188084420802288511931
:10961000788805F0C7FC2188084420800020D6E720
:1096200010B5044600BF2046FEF744F800BF10BD49
:1096300030B587B01C216846FCF733FF002000904E
:109640004FF4A03001904FF4F020029003208DF8E9
:109650000C000020ADF80E008DF8100009480590B0
:10966000094806906846FEF727FE044600BF2546D7
:1096700025B100BF2846FEF71DF800BF00BF07B0A8
:1096800030BD0000C1D2020021960200F8B50546A7
:109690000C46607A88B9207A10B91048476801E012
:1096A0000E4887682A4639466068FEF791F80646F4
:1096B00016B1304604F0C6FD0EE0002020720748C7
:1096C000406948B101208DF80000ADF80250034810
:1096D00041696846884700BFF8BD0000B4340020E7
:1096E0002DE9FF4105460C46002002900390ADF89D
:1096F0000840ADF80A40009001906A4602A9284649
:1097000090DF0646002E32D0304602F0BFFE0746FC
:1097100019491A4A891AC908012242EA01403B46FE
:109720002A46174902F042F9BDF8000010B9BDF809
:10973000020068B1BDF80230BDF800200E490F4F9D
:10974000C91BC908012747EA01400EA102F02EF902
:10975000BDF8040058B1BDF804200749074BC91AE9
:10976000C908012343EA0140164902F013F93046C3
:1097700004B0BDE8F081000040FE020040FE02009F
:10978000A0F6020054686520726571756573746592
:10979000642054582F5258207061636B6574206C9C
:1097A000656E67746820697320746F6F206C6F6ECC
:1097B000672062792025752F2575206F6374657485
:1097C000732E0000ECF602002DE9F04180460024E3
:1097D00014E01248006800EBC405287802F0E2FFAC
:1097E00007466878012800D100E00020784080F02A
:1097F00001062878314600F023FB641C08480078F5
:109800008442E6DB0748D0E9001000235940584065
:10981000014301D005F092F8BDE8F081802B0020D3
:10982000842B0020902B002010B50021034801F06C
:1098300041F9044684F3100010BD0000C43C002030
:1098400070B505460C464FF4803000FA04F1284606
:1098500000F0DCFA70BD70B505460C464FF4A07000
:1098600000EB840086B23146284600F061FB70BDF3
:109870002DE9F04704460D4616461F464FF480304A
:1098800000FA05F84FF4A07000EB85001FFA80F98C
:1098900026F07F464146206802F0DAFA4146206809
:1098A00002F0D0FA4946206802F0C5FA324629464D
:1098B000206802F0B7FA4146206802F0C6FA1FB1EC
:1098C0004146206802F0C7FABDE8F08710B50446AB
:1098D000206802F0ACFA10BD2DE9F04704460D46B1
:1098E000174660792F4941F8207060792E4901EBC5
:1098F000C000007968B108262C492D4A891AC90888
:10990000022242EA01402BA102F03AF83046BDE8BB
:10991000F08729882068C0F8081500BF94F9042052
:10992000AB781046194600280CDA4FEA417C4FEA22
:109930001C69DFF8A4C000F00F08A8F104080CF8B7
:10994000089007E04FEA417C4FEA1C68DFF88CC0C2
:109950000CF8008000BF00BF94F9040000BF00F0C5
:109960001F02012191404209920002F1E022C2F857
:10997000001100BF00BF012061790B4A02EBC10159
:1099800008716079114641F8304000260749084ABD
:10999000891AC908032242EA014011A101F0F0FF2F
:1099A0003046B4E7D82B0020DC2B002088FE0200D4
:1099B00040FE020052544320696E7374616E636509
:1099C00020616C726561647920696E697469616C8B
:1099D000697A65642E00000018ED00E000E400E004
:1099E0005254433A20696E697469616C697A65649E
:1099F0002E00000010B5014691F9040000F01F038D
:109A000001229A40024B440943F8242000BF10BDB4
:109A100000E200E070B505460C46224602212846C9
:109A200000F000FA70BD10B504464FF48271204674
:109A300000F07EFA10BD10B504460021206802F047
:109A40000DFA10BD10B504460421206802F006FA94
:109A500010BD2DE9F84F04460D46164699464FF4C1
:109A6000803000FA05FB4FF4A07000EB850080B257
:109A7000009026F07F465946204600F0C7F920683E
:109A800002F0D5F90746206800F5A86151F82510C5
:109A90008A463A462946206802F0C4F920680099AF
:109AA00002F0C9F93946504604F0A2FE012806D159
:109AB000102002F08FFD2068009902F0BCF92068A8
:109AC00002F0B5F907463946304604F091FE80466B
:109AD0005946206802F0B9F9B8F1010F0FD1721C94
:109AE0002946206802F09EF9102002F073FD2068DC
:109AF00002F09DF9B84227D00D20BDE8F88F32461C
:109B00002946206802F08EF9206802F090F9074695
:109B1000701E394604F06CFE80466FF07F40A0EB6B
:109B20000900404501D20D20E7E7B8F1000F0BD145
:109B3000721C2946206802F075F9206802F077F956
:109B4000B84201D00D20D8E701225946204600F046
:109B500069F90020D1E7000013480078062820D1D9
:109B60001148001D007800F00F00D0B90E480830F1
:109B7000007800F0F000302801D1012070470A4839
:109B80000830007800F0F000402801D10120F5E70E
:109B900005480830007800F0F000502801D101207D
:109BA000ECE70020EAE70000E00F00F0134800783F
:109BB000062820D11148001D007800F00F00D0B910
:109BC0000E480830007800F0F000302801D1012064
:109BD00070470A480830007800F0F000402801D1B2
:109BE0000120F5E705480830007800F0F000502823
:109BF00001D10120ECE70020EAE70000E00F00F0CF
:109C000013480078062820D11148001D007800F084
:109C10000F00D0B90E480830007800F0F00030286E
:109C200001D1012070470A480830007800F0F000A8
:109C3000402801D10120F5E705480830007800F000
:109C4000F000502801D10120ECE70020EAE70000F5
:109C5000E00F00F00A48007806280ED10848001DE1
:109C6000007800F00F0040B905480830007800F097
:109C7000F000302801D1012070470020FCE70000EF
:109C8000E00F00F006480068062806D10448001DD1
:109C90000068062801D1012070470020FCE7000081
:109CA0003001001013480078062820D11148001D0B
:109CB000007800F00F00D0B90E480830007800F0AE
:109CC000F000302801D1012070470A4808300078A0
:109CD00000F0F000402801D10120F5E705480830E8
:109CE000007800F0F000502801D10120ECE70020BE
:109CF000EAE70000E00F00F00A48007806280ED1DD
:109D00000848001D007800F00F0040B905480830F1
:109D1000007800F0F000302801D1012070470020C9
:109D2000FCE70000E00F00F013480078062820D17F
:109D30001148001D007800F00F00D0B90E4808301F
:109D4000007800F0F000302801D1012070470A4867
:109D50000830007800F0F000402801D10120F5E73C
:109D600005480830007800F0F000502801D10120AB
:109D7000ECE70020EAE70000E00F00F00A48007876
:109D800006280ED10848001D007800F00F0040B9E9
:109D900005480830007800F0F000302801D101209B
:109DA00070470020FCE70000E00F00F00A48007850
:109DB00006280ED10848001D007800F00F0040B9B9
:109DC00005480830007800F0F000302801D101206B
:109DD00070470020FCE70000E00F00F00A48007820
:109DE00006280ED10848001D007800F00F0040B989
:109DF00005480830007800F0F000502801D101201B
:109E000070470020FCE70000E00F00F070B504464A
:109E10000D462946206802F015F82946206802F010
:109E200017F870BD70B504460E46154631462068D9
:109E300002F00BF81DB13146206802F00CF870BD3D
:109E4000F8B505460C46284604F0E0FB05286AD222
:109E5000DFE800F003212A393F00DCB10121284668
:109E600004F0E4FB002000906846FDF789FD2A46D7
:109E70000126002730463946FCF7E7FA2B4AD2E99B
:109E8000003218431143294A03C29DF80000FDF730
:109E90007DFD00BF47E00CB1022000E0002001463C
:109EA000284604F0C3FB3EE044B10321284604F0F9
:109EB000BDFB0121284605F036F903E001212846C3
:109EC00004F0B4FB2FE01CB90421284604F0AEFBDB
:109ED00029E024B10321284604F0A8FB22E0002158
:109EE000284604F0A3FB0021284605F01CF90020B9
:109EF00000906846FDF744FD2A46012600273046BB
:109F00003946FCF7A2FA0A46C143D043074B0CCBB3
:109F100011401840054AC2E900109DF80000FDF705
:109F200035FD00BF00BF00BFF8BD0000902B002032
:109F300070B505460C462868015929B121462868A4
:109F400001F079FF012070BD0020FCE770B50446E8
:109F50000D462A460021204600F00EF8A068401C5D
:109F6000A06070BD01468A68C868801A70470146C3
:109F70008A68C868801A704710B583680B44848863
:109F800023400468E35C137010BDC26883881A40E4
:109F900003689954C268521CC260704770B5054688
:109FA0000E46144624B13146284600F045FD03E034
:109FB0003146284600F022FD70BD30B504461088B9
:109FC000C01C984201D90C2030BD0220158848558C
:109FD0001088401C10800120158848551088401CAE
:109FE000108015884C551088401C10800020EBE72D
:109FF00070B504460D4640F21442115B0122D4F8BC
:10A000001004FDF7FBFE064606B1357004F13C0274
:10A0100004F5826104F1540072DF70BD3EB500BFEB
:10A020009DF8000020F00F00401C00909DF80000FB
:10A0300020F0F0001030009000BF0A2214A1684602
:10A040007CDF044600BF254625B100BF2846FDF74A
:10A0500031FB00BF00BF0020019002905020ADF8FE
:10A060000400A020ADF806000020ADF808004FF471
:10A07000C870ADF80A0001A87ADF044600BF254683
:10A0800025B100BF2846FDF715FB00BF00BF3EBD50
:10A090004D756C74696D65746572000070B5054628
:10A0A0000C4660880D490988884215D1208840F601
:10A0B0007721884210D1A088C01E0949088009492B
:10A0C000094A891AC908032242EA014004490B8857
:10A0D0000A8806A101F06AFC70BD0000142B002064
:10A0E000162B0020A0FE020040FE020044617461B5
:10A0F000206C656E2069732073657420746F203046
:10A10000782558282564290070B50E490E4800F0BE
:10A1100084FD044600BF254625B100BF2846FDF753
:10A12000C9FA00BF00BFF721074800F067FD0446E9
:10A1300000BF254625B100BF2846FDF7BBFA00BF8A
:10A1400000BF70BD9DA00200682C002070B50B48B8
:10A15000FFF7BCFB0A4B0CCB841843F100050949FF
:10A1600003C9201A75EB010004D24FF08073E41884
:10A1700045F100052046294670BD0000982B0020BF
:10A18000A82B0020B02B00202DE9F0410446884682
:10A19000E0B2FFF713F80546287802F003FB074604
:10A1A0006878012800D100E00020784080F00106A6
:10A1B0004EB10648D0E900100023594058400143F1
:10A1C00001D104F0BBFBBDE8F0810000902B002022
:10A1D00010B501F049FA08B901F0DAFD10BD000030
:10A1E000024600210CE001EB8100074B33F8200010
:10A1F000904204D101EB810003EB80007047491CC1
:10A200000029F0D00020F9E7A03400202DE9FC5F00
:10A2100083460E4691461F46DDE90C45002E01DAC5
:10A22000704200E0304682464FF0010803E09AFB9E
:10A23000F9FA08F10108CA45F9DA474500D9B846E4
:10A2400034B1002E03DB05F00400042800D1641EA5
:10A2500005F0020000B167B105F0010048B944B152
:10A2600004E0641E20215846FEF736FF0CB1A045DD
:10A27000F7D3002E05DA76422D215846FEF72CFF43
:10A2800007E005F00400042803D12B215846FEF70F
:10A2900023FF05F0020002280DD105F0010050B99E
:10A2A0004FB944B104E0641E30215846FEF714FF54
:10A2B0000CB1A045F7D33B464A4631465846CDE956
:10A2C000004504F075FEBDE8FC9F000070B5054632
:10A2D0000949286802F001F9286802F08BF9044660
:10A2E000204600F01F0201219140044A430942F830
:10A2F000231000BF00BF70BD8402020080E100E0B7
:10A3000070B505460949286802F018F9286802F076
:10A3100075F90446204600F01F0201219140044ACD
:10A32000430942F8231000BF00BF70BD1003420074
:10A3300080E100E02DE9F04104460E464FF48E71B5
:10A34000206802F0BEF84FF4A271206802F0B9F85C
:10A350001749206802F0C4F8206802F04BF905465E
:10A36000374628463946002809DA4A074FEA126C70
:10A37000104A00F00F031B1F02F803C003E04A0756
:10A38000130E0D4A135400BF00BF206802F032F9CB
:10A390000546284600F01F02012191404209920023
:10A3A00002F1E022C2F8001100BF00BFBDE8F08159
:10A3B0008000020018ED00E000E400E02DE9F0412B
:10A3C00004460E464FF48871206802F0AAF84FF454
:10A3D0009071206802F0A5F84FF49271206802F0A5
:10A3E000A0F84FF4A271206802F09BF84FF4AC7112
:10A3F000206802F096F81849206802F0A2F8206858
:10A4000002F0FCF80546374628463946002809DAA6
:10A410004A074FEA126C114A00F00F031B1F02F8A3
:10A4200003C003E04A07130E0D4A135400BF00BFD8
:10A43000206802F0E3F80546284600F01F020121DB
:10A4400091404209920002F1E022C2F8001100BFDF
:10A4500000BFBDE8F08100001003420018ED00E0ED
:10A4600000E400E030B5024600201378C3F3800317
:10A47000D3B1137803F00303012B02D0022B10D1C8
:10A4800007E01388C3F383139B1C0C6823440B6001
:10A4900008E00B680225146805EB945423440B6014
:10A4A00000E000BF00BF012030BD2DE9F0410446AF
:10A4B000A08800EB020CB4F80480904501DD104642
:10A4C00000E0A088A8EB0005E088C618B4F8068074
:10A4D000984501DD184600E0E088A8EB00074888B1
:10A4E000B4F80080404504DB4888B4F80280404559
:10A4F00002DD0020BDE8F0818888A84202D3888868
:10A50000604501D90020F5E7C888B84202D3C88861
:10A51000B04201D90020EDE70120EBE701460868D1
:10A5200008B102680A60704770B500210120FEF78B
:10A5300047FB044600BF254625B100BF2846FDF76E
:10A54000B9F800BF00BF70BD10B50848007850B121
:10A55000002405E0022C02D02046FEF727FA641CF6
:10A56000042CF7D301E0FEF765FA10BD482B00205C
:10A5700010B504460448007800F0010018B1034803
:10A580000078FEF773FB10BD442B0020402B002009
:10A5900010B502F00FF800200149887010BD0000CE
:10A5A0004C350020F72101801721418000210171E5
:10A5B00041711B218171C171704770B54FF48041A9
:10A5C000002001F061FA044600BF254625B100BF16
:10A5D0002846FDF76FF800BF00BF01F031F870BDED
:10A5E0002DE9FF4100272E4800F03CFA2C48001FBF
:10A5F00000F038FA2B48406803902A488568039891
:10A60000284028490C3101EB800800BF03A94046CF
:10A61000FFF728FF30B10398284022490C3101EBA5
:10A62000800800E000E0F1E700BF00240AE00398A2
:10A63000411C284003911B490C3151F820004DF872
:10A640002400641C022CF2D3009800F003000128BF
:10A650000DD0022814D1BDF806700421009801EB3A
:10A660009050401E039901EB9000039009E0BDF863
:10A6700006700098C0F3831003990844039000E02B
:10A6800000BF00BF0648001F00F0E5F9064616B1FE
:10A69000044903984860384604B0BDE8F0810000E2
:10A6A000C03C0020A8380020FFF787FFFEF736FDEA
:10A6B00004F054F9FFF738FF03F0A0FAFDF7FBFFB1
:10A6C000FCF7D0FDFFF7AAFCFFF71EFD03F066FEC6
:10A6D000FCF7B4FEFEF7ACFF0849094A891AC9081D
:10A6E000032242EA014007A101F04AF9FDF79CF973
:10A6F000FCF7FAFE01E0FFF76BFDFCE7A0FE0200AD
:10A7000040FE0200424C452054656D706C617465DA
:10A71000206578616D706C65207374617274656416
:10A720002E0000002DE9F04105460E4614469846DD
:10A73000A888871C2088801C3844404502D90C20FA
:10A74000BDE8F081FE2F01D90C20F9E7781C2188A3
:10A7500070542088401C2080FF202188705420885D
:10A76000401C208022889119288804F01BFC218835
:10A7700008442080A88800280DDDA86808B90720B3
:10A78000DEE7AA8823889819A968FBF771FE20885C
:10A79000A988084420800020D2E72DE9FF4F87B028
:10A7A000044691461E46A2462546BAF806009AF887
:10A7B00005104843001F0690BAF806B0301DB0FBE4
:10A7C000FBF00590301DB0FBFBF10BFB110004907A
:10A7D000D9F8000081190698814202D90698801B99
:10A7E00001E0D9F800000746C9F8007003E02D68C1
:10A7F0000598401E059005980028F8D1039004980C
:10A80000ABEB0008B84501D9384600E04046804629
:10A8100023E00399089808440290281D04990844ED
:10A820000190149828B14246DDE90110FBF720FEA3
:10A8300004E04246DDE90101FBF71AFE0020049026
:10A840002D68A7EB0807039840440390BB4501D946
:10A85000384600E05846804600BF002FD9D10BB0E3
:10A86000BDE8F08F70B503460C469CB101F038F995
:10A87000054600220AE0084800EB820108881E68AD
:10A88000B04202D11A60002070BD521CAA42F2D31D
:10A890000520F9E70020F7E7000000002DE9F84F58
:10A8A00005460F46144698462878012804D1687852
:10A8B00010B90720BDE8F88F2088801C404508D8D3
:10A8C0002878012807D12088801C697808444045F1
:10A8D00001D90C20EEE72088A8EB0000801E86B28C
:10A8E00000962188891CC81969467DDF814600BF12
:10A8F000484600B1DEE700BF2878022804D0687817
:10A90000BDF80010884206DBBDF80000B04202DC52
:10A910004FF0090A0BE04FF0080A2878012805D10A
:10A920006878B04202DC6878009000E00096BDF8DC
:10A930000000FE2801D90C20BCE7BDF80000401C37
:10A94000218878542088401C2080208807F800A0A7
:10A950002088401C20802088BDF8001008442080FA
:10A960000020A7E710B5044609B90E2010BD92FBE0
:10A97000F3F003FB102008B10920F7E72160002065
:10A980006060A060A281E38100BFEFE770B504467C
:10A990000D4629462046FBF73FFC18B12A8821685E
:10A9A000881870BD0020FCE770B505460C4620886D
:10A9B0006188884204D12846FBF770FC012070BDF5
:10A9C0000020FCE770B504460D4629462046FBF7FB
:10A9D00048FC18B16A882168881870BD0020FCE71F
:10A9E00070B505460C4620886188884204D1284607
:10A9F000FBF72EFC012070BD0020FCE770B505467A
:10AA00000C4604F01F0301229A40D143620905EB72
:10AA1000820000F039F8064670BD10B502464809BC
:10AA200052F8200001F01F040123A340184008B190
:10AA3000012010BD0020FCE770B505460C4604F06F
:10AA40001F03012202FA03F1620905EB820000F004
:10AA50003CF8064670BD10B504460021204600F0C3
:10AA60001EF810BD10B504460121204600F02DF857
:10AA700010BDF8B504460D466A4629462046FBF748
:10AA800062FC06460098F8BDF8B504460D466A46D5
:10AA900029462046FBF73DFC06460098F8BDF8B570
:10AAA00004460D466A4629462046FBF732FC064618
:10AAB0003046F8BDF8B504460D466A46294620469C
:10AAC000FBF70EFC06463046F8BDF8B504460D46C9
:10AAD0006A4629462046FBF70FFC06460098F8BD5B
:10AAE000F8B504460D466A4629462046FBF738FC71
:10AAF00006460098F8BDF8B50446002600200090F0
:10AB00006846FCF73DFF206800686168884215D9F7
:10AB100020680068401E226810600178204600F01E
:10AB200033F80646207A21680978401AC5B22068B1
:10AB30000079A84201DA2068057100BF9DF8000085
:10AB4000FCF724FF3046F8BD0246D068081A138A85
:10AB5000B0FBF3F0C0B27047F8B504460D462E4680
:10AB6000002000906846FCF70BFF31462046FFF7B7
:10AB7000EBFF21680A68511C2368196010709DF86A
:10AB80000000FCF703FFF8BD0246138AD06801FB02
:10AB90000300704710B5014600BF09B90E2010BD73
:10ABA00000BF087A0B79C01AC2B2D1E90030186030
:10ABB00005E008680368581C0C6820601A70101EB5
:10ABC000A2F10103DAB2F4D10B68187100BFE6E715
:10ABD00030B502460B46D40802F00702012090402F
:10ABE0001D5D284030BD30B50B46C20800F007009F
:10ABF0009C5C012585402C439C5430BD024600BF1F
:10AC00000AB90E20704700BF172901DBF72901DDC3
:10AC10000720F7E711800020F4E770B504460E46E0
:10AC200000BF0CB90E2070BD00BF2661F720208048
:10AC300060801B202071002505E0A11D01EBC500EF
:10AC4000FFF7B0FC6D1C002DF7D00020EBE70000F3
:10AC50002DE9F047064688464546B488012C01DBBD
:10AC6000BDE8F0873088242820D006DC102809D0E1
:10AC700011280CD0232823D11DE03A280CD05528C8
:10AC80001ED10EE03146284602F0F2FB19E03146B3
:10AC9000284602F0C3FC14E03146284602F02CFDA1
:10ACA0000FE03146284602F0C3FC0AE03146284650
:10ACB00002F040FC05E03146284602F065FC00E069
:10ACC00000BF00BFA81D00EBC400007918B3A81D89
:10ACD00030F834102046A5DF074657B90021A81DDB
:10ACE00000EBC40001710121A81D00EBC4004171FB
:10ACF00010E0112F0ED0384601F0C8FB81460749FD
:10AD0000074A891AC908012242EA01404A4605A1B8
:10AD100000F040FE00BF00BFA2E7000040FE0200BE
:10AD200040FE020073645F626C655F676174746308
:10AD30005F65786368616E67655F6D74755F726586
:10AD4000717565737428292072657475726E6564F7
:10AD50002025732E00000000024600BF0AB90E2015
:10AD6000704700BF00BF1078DE2801D00820F7E749
:10AD700000BF51800020F3E7024600BF0AB90E2051
:10AD8000704700BF00BF09B90E20F9E700BF107877
:10AD9000DE2801D10820F3E708685060DE2010703B
:10ADA0004FF6FF7050800020EAE770B504460E466B
:10ADB00000BF06B970BD00BF00BF04B9FAE700BF0D
:10ADC000354600BF2878DE2800D0F3E700BFA08812
:10ADD0006988884202D1284604F08FF9208801282A
:10ADE00006D0022809D0112811D0512817D109E026
:10ADF000211D284602F066FD12E0211D284602F0C2
:10AE000060FD0DE0211D284602F006FD08E0A08847
:10AE10006988884202D14FF6FF70688000E000BF69
:10AE200000BF00BFC6E701464FF08040405808B160
:10AE3000012070470020FCE708B500224FF0804158
:10AE40000A500958009100BF08BD00000149086080
:10AE50007047000008030040012291070A50704724
:10AE600010B500240C48007808B1852411E00020BA
:10AE70000949886048600861C860084801F088FB9B
:10AE8000044601F041FA08B901F078FB01200249BB
:10AE90000870204610BD00004C350020AD94020023
:10AEA00008B5002000906846FCF76AFD0748C068B6
:10AEB000401E0649C8600846C06808B9FFF768FB2D
:10AEC0009DF80000FCF762FD08BD00004C35002035
:10AED0002DE9F04188B004460F46154626781A48F9
:10AEE00040F826501949386941F82600787F1849FA
:10AEF0008855202239466846FBF7BAFA04964FF087
:10AF0000000820781249085C50B10DB1114800E0EA
:10AF1000002002466946201D01F0F8FF80460EE041
:10AF200020780B49085C50B90DB10B4800E00020B7
:10AF30000246694604F10C0001F08EFE8046404650
:10AF400008B0BDE8F0810000602B0020642B0020D9
:10AF5000682B00202DEE020081EC02002DE9F0416B
:10AF600004460D461646002720780C49085C30B18F
:10AF700032462946201D02F009F807460AE02078EB
:10AF80000649085C30B93246294604F10C0001F04C
:10AF9000A7FE07463846BDE8F0810000682B002078
:10AFA0002DE9F04104460D461646002720780C494D
:10AFB000085C30B132462946201D02F083F807466E
:10AFC0000AE020780649085C30B93246294604F187
:10AFD0000C0001F017FF07463846BDE8F08100007D
:10AFE000682B00200FB438B50446059810B938BC5A
:10AFF0005DF814FB0020009006A800906A462046E9
:10B00000059900F012F80020009000BFEFE770B53E
:10B010000446A06800B970BDD4E90403A2682168A1
:10B0200098470020A06000BFF5E72DE9FC5F82464D
:10B030000D4614460DB9BDE8FC9F00BF2E786D1C6F
:10B0400006B9E1E0252E70D100274FF0010900BFBD
:10B050002E782B2E0CD02D2E02D0302E0CD103E0CA
:10B0600047F001076D1C0AE047F002076D1C06E07F
:10B0700047F004076D1C02E04FF0000900BF00BF5D
:10B08000B9F1000FE4D14FF0000800BF2A2E06D11D
:10B090002168081D2060086880446D1C0DE02E7832
:10B0A000302E01DB392E00DD07E06D1CA6F13000EB
:10B0B00008EB880100EB4108E8E700BF4FF0000B08
:10B0C0002E782E2E10D16D1C00BF2E78302E01DB75
:10B0D000392E00DD07E06D1CA6F130000BEB8B0173
:10B0E00000EB410BF1E700BF2E7800BF6C2E01D0C2
:10B0F000682E02D16D1C2E7800E000E0F6E700BF5C
:10B10000692E21D008DC252E6DD0582E39D0632E23
:10B110000CD0642E6CD116E0702E4CD0732E3ED025
:10B12000752E1FD0782E63D12AE065E02168081DB6
:10B130002060D1F8009009F0FF000190504601997D
:10B14000FDF7CAFF55E000BF2168081D2060D1F857
:10B1500000905B460A2249465046CDE90087FFF73A
:10B1600055F846E02168081D2060D1F800905B4644
:10B170000A2249465046CDE9008703F019FF38E01E
:10B1800000BF2168081D2060D1F800905B461022A6
:10B1900049465046CDE9008703F00AFF29E02168BF
:10B1A000081D2060086801903B46424650460199C0
:10B1B00003F0CAFA1DE02168081D2060D1F8009054
:10B1C00030215046FDF788FF78215046FDF784FF77
:10B1D000002008210B461022CDE9001049465046B8
:10B1E00003F0E6FE05E025215046FDF775FF00E07F
:10B1F00000BF00BF6D1C03E031465046FDF76CFFF9
:10B20000287800287FF41AAF00BF9AF80C0010B11C
:10B210005046FFF7FCFE00BF0DE7F0B5DDE9054540
:10B2200000BF4FF0A0473E4641EA420747EA830786
:10B2300047EA042747EA054C06F5E06747F820C0CF
:10B24000F0BDF0B5DDE9054500BF4FF0A0473E4633
:10B2500041EA420747EA830747EA042747EA054CE1
:10B2600006F5E06747F820C0F0BDF0B5DDE905451B
:10B2700000BF4FF0A0473E4641EA420747EA830736
:10B2800047EA042747EA054C06F5E06747F820C07F
:10B29000F0BDF0B5DDE9054500BF4FF0A0473E46E3
:10B2A00041EA420747EA830747EA042747EA054C91
:10B2B00006F5E06747F820C0F0BD1CB50446002045
:10B2C000009003460122014601902046FFF7CDFF82
:10B2D0001CBD1CB504460020009003460122014617
:10B2E00001902046FFF7D5FF1CBD7CB505460C46F6
:10B2F0000020009023460246014601902846FFF7B1
:10B30000B4FF7CBD7CB505460C460020009023466A
:10B310000246014601902846FFF7BBFF7CBD1CB5E5
:10B320000446002000900346012211460190204669
:10B33000FFF79BFF1CBD1CB5044600200090034690
:10B340000122114601902046FFF7A3FF1CBD10B556
:10B350000A4600BF4FF0A043194601F5E06353F8D9
:10B36000203023F4403401F5E06343F8204053F8E3
:10B37000203043EA024401F5E06343F8204010BD69
:10B38000014600BF4FF0A040024600BFD2F81005B2
:10B39000C84000F00100704700BF4FF0A0410A46CE
:10B3A000012303FA00F1C2F8081500BF704700BF7F
:10B3B0004FF0A0410A46012303FA00F1C2F8081534
:10B3C00000BF704700BF4FF0A0431946D1F80425D5
:10B3D000012383409343C1F8083501238340134080
:10B3E000C1F80C35704710B561B900BF00BF4FF010
:10B3F000A0421346012404FA00F2C3F80C2500BF52
:10B4000000BF0CE000BF00BF4FF0A0421346012474
:10B4100004FA00F2C3F8082500BF00BF00BF10BD4A
:10B4200038B50B46074C24680094014606E05DF8E9
:10B430002140D4F810551560121D491CC4188C42C7
:10B44000F5D838BDF8F202000146014808447047BB
:10B450000060004038B504462046FFF7F5FF0021A4
:10B4600001602046FFF7F0FF0068009000BF38BD84
:10B4700010B504462046FFF7E7FF0068012800D119
:10B4800010BD0020FCE70000014908607047000083
:10B490000463004070B504460E46FCF757FB0546B2
:10B4A000681C08B9284670BDE8B2E168087100BFA1
:10B4B0000C48D0F8100430B90A48C0F810440020F5
:10B4C000E16808600BE00748D0F81004C068006825
:10B4D000E16808600348D0F81004C068046028469A
:10B4E000E1E70000A8380020704710B5FBF782FAAA
:10B4F00010BD704738B504460D4604484023044A41
:10B5000029460090204600F005F838BD81E202008F
:10B51000103700202DE9F04F93B082460E461746B3
:10B520009846DDF87090304600F0D3FB18210DA846
:10B53000FAF7B7FF0D97CDF83880CDF84890002581
:10B540002B46082207A9304600F0E0FB08250998A1
:10B550000A90BDF82000ADF82C00BDF82200ADF82F
:10B560002E0000208DF83100079800F0030001281C
:10B570001BD107984FEA902B0798C0F3C2008DF8B3
:10B5800030000798C0F38314A2002B4601A930466F
:10B5900000F0BCFB05EB84050DA80AAB224601A90F
:10B5A0000090584600F0D4FA27E0079800F0030016
:10B5B000022822D107984FEA905B0798C0F3C20097
:10B5C0008DF8300000BFBBF1080F01D2584600E0F3
:10B5D000082004462B46224605A9304600F096FB7B
:10B5E0002544ABEB040B0DAB0AAA214605A800F0DD
:10B5F000EDF9BBF1000FE6D100BF304600F077FB5C
:10B6000013B0BDE8F08F000010B502460B4C04EB00
:10B61000C203012906D0022906D0032906D0042935
:10B6200008D105E0022007E0042005E0187903E0D6
:10B63000587901E0002000BF00BF10BD40FE0200AD
:10B6400010B54FF0FF34FFF750FF04210548FFF716
:10B6500021FF044600BF01200249C968487100BFAC
:10B6600010BD000030FE02002DE9F04F8BB0FDF759
:10B6700049FD18B100200BB0BDE8F08F0020B7499C
:10B68000C1F8180400BF00BF00BFBFF34F8F00BF59
:10B6900000BF00BF084640680A90084684680A98C0
:10B6A00020400C3101EB800A002500260020069086
:10B6B00000BF0AA95046FEF7D5FEA8B1A748D0F8AA
:10B6C000180488B9A54800680A99884205D8A34893
:10B6D0000068A24948600020CDE70A9820409F49B1
:10B6E0000C3101EB800A00E000E0E2E700BF002738
:10B6F0000BE00A98411C20400A9198490C3151F8FE
:10B70000200007A941F827007F1C022FF1D30798DA
:10B7100000F0030002287CD10798800D059050218D
:10B720000798B1EB905F02DD0798800D00E0502094
:10B730008146079869F39F50079009F1080004902B
:10B740000798C0F3C20006908548049900F064FA97
:10B750000546002D5BD0284600F0BBFA3346082290
:10B7600007A9284600F0E3FA08360A982040611C31
:10B77000081A4FEA8008C14535D9B8F1000F06D044
:10B780000A98204075490C3101EB800001E07348B4
:10B790000C300390B8F1000F01D0404600E048465D
:10B7A00000F0FF0BB8F1000F02D06C480C3000E045
:10B7B00000200290B8F1000F02D0A9EB080000E0D1
:10B7C0000020C0B2019033465A462846039900F043
:10B7D000AEFA5E44029828B133462846DDE90121DD
:10B7E00000F0A5FA0CE00A9820405C490C3101EB0E
:10B7F000800B33464A465946284600F098FA00BF67
:10B800000598C01C0A9901EB90000A9000BF44E023
:10B81000FFE7079800F0030001283ED10798C0F326
:10B820008310062803DA0798C0F3831000E006208F
:10B83000079960F3891107910798C0F3831000F10D
:10B8400002080798C0F3C20006904FEA88014448F6
:10B8500000F0E2F90546FDB1284600F03AFA334619
:10B86000082207A9284600F062FA083600270EE0F1
:10B870000A98421C20400A92384A0C3202EB80019E
:10B8800033460422284600F052FA361D7F1C0798E2
:10B89000C0F38310B842EBD800BFE5B32F48D0F80F
:10B8A0001084D0F8180418B1284600F020FA31E0CE
:10B8B00019E04FF0000900BFD8F80C0040790128CA
:10B8C00000D18146B9F1000F08D000BFD8F80000C0
:10B8D000294602684046904700BF00BFD8F80C00D8
:10B8E000D0F8008000BFB8F1000FE2D1284600F088
:10B8F000FEF90020059005A8FCF742F81748D0F89B
:10B90000180410B915490A9848609DF81400FCF70E
:10B910003DF800BF1DE0FFE71048D0F810840AE0B2
:10B92000C146D9F8000081684846884700BFD8F86A
:10B930000C00D0F80080B8F1000FF1D109490A4A93
:10B94000891AC908022242EA014008A100F018F849
:10B9500000BFFDF7D7FB80F001008CE6A83800207F
:10B96000C0FE0200A0FE020040FE02004261636BC6
:10B97000656E647320666C75736865640000000012
:10B9800070B504460D4600231A462946204602F0AB
:10B99000A3FE70BDF8B505460E461446009401237B
:10B9A0006A463146284602F097FEF8BD2DE9FC4173
:10B9B00006460F4614461D460094019502236A462A
:10B9C0003946304602F088FEBDE8FC812DE9F05F83
:10B9D00007460E4690461D46082E01D9BDE8F09F49
:10B9E00095F80C90002028732946404602F014F97F
:10B9F00000240CE0B44205D23A5D1DA12846FFF7B1
:10BA0000F1FA03E01CA12846FFF7ECFA641C082CAD
:10BA1000F0D31AA12846FFF7E5FA00241DE0B4424E
:10BA200016D217F804A0BAF17E0F09DCFAF71CFD54
:10BA3000006810F80A0000F03E0008B1504600E02F
:10BA40002E2083465A460EA12846FFF7CBFA03E084
:10BA50000CA12846FFF7C6FA641C082CDFD301228C
:10BA60002946404602F0A6F885F80C9000BFB5E7DD
:10BA70002025303278000000202020007C000000CB
:10BA800025630000200000002DE9F04106460F4626
:10BA900000BFFF200D498860002008604860C1F8A1
:10BAA0001804C1F8140481F82004094800F019F9B9
:10BAB000044614B12046BDE8F081064800F0A4F920
:10BAC00005480649401AC5080020F4E7A8380020B8
:10BAD000C0FE020068F50200C0FE020040FE020047
